:020000040800F2
:10000000D00A0020F50E0008010A0008030A0008C3
:10001000070A00080B0A00080F0A00080000000089
:10002000000000000000000000000000130A0008AB
:10003000150A000800000000170A0008190A000845
:100040000F0F00080F0F00080F0F00080F0F000818
:100050000F0F00080F0F00080F0F00080F0F000808
:100060000F0F00080F0F00080F0F00080F0F0008F8
:100070000F0F00080F0F00080F0F00080F0F0008E8
:100080000F0F00080F0F00080F0F00080F0F0008D8
:100090000F0F00080F0F00080F0F00080F0F0008C8
:1000A0000F0F00080F0F00080F0F00080F0F0008B8
:1000B0000F0F00080F0F00080F0F00080F0F0008A8
:1000C0000F0F00080F0F00080F0F00080F0F000898
:1000D0000F0F0008F50D00080F0F00080F0F0008A4
:1000E0000F0F00080F0F00080F0F00080F0F000878
:1000F0000F0F00080F0F00080F0F00080F0F000868
:100100000F0F00080F0F00080F0F00080F0F000857
:100110000F0F00080F0F00080F0F00080F0F000847
:100120000F0F00080F0F00080F0F00080F0F000837
:1001300000F002F800F05AF80AA090E8000C82449F
:100140008344AAF10107DA4501D100F04FF8AFF27C
:10015000090EBAE80F0013F0010F18BFFB1A43F0A5
:1001600001031847A41B0000C41B00000A444FF001
:10017000000C10F8013B13F0070408BF10F8014B06
:100180001D1108BF10F8015B641E05D010F8016B4B
:10019000641E01F8016BF9D113F0080F1EBF10F8AF
:1001A000014BAD1C0C1B09D16D1E58BF01F801CBD2
:1001B000FAD505E014F8016B01F8016B6D1EF9D555
:1001C0009142D6D37047000000230024002500266A
:1001D000103A28BF78C1FBD8520728BF30C148BFAA
:1001E0000B6070471FB51FBD10B510BD01F059FD64
:1001F0001146FFF7F7FF00F00CFB01F077FD03B4A9
:10020000FFF7F2FF03BC00F093FD000070B5044659
:100210000D4600260DE000BF8021F74801F022FCCA
:100220000028F9D02178F44801F0AEFB641C701C62
:10023000C6B2AE42EFDB70BD70B56DE06421EF4831
:1002400001F0B0FCEE49EF480068801C095CEC4A04
:10025000EC480068C01C105C01EB0020001DEA495E
:1002600008601046E74A12688118E7480268E748C4
:1002700001F053FCE5488078132820D1E348C0788A
:10028000E8B9E24800790D2819D1E04840791828EA
:1002900015D1DE48807990B9C820DC490872002069
:1002A00048720875002408E0D848007DD749095DE8
:1002B0000844D6490875601CC4B2142CF4DBD2483B
:1002C0000178D248FFF7A2FFD0484079022803D135
:1002D000CE488079502813D0002600250CE001205C
:1002E00000F0F3FCCA480078012804D10126002060
:1002F000C749087003E06D1CB5F5FA6FEFD300BF76
:10030000C0480068C04909680844BE490860BC4844
:100310000968405C00B900E090E700BF70BD10B50F
:100320006421B64801F03EFC0C21BAA0FFF76EFF35
:1003300010BD10B56421B14801F034FC0A21B9A008
:10034000FFF764FF002400BF0CE0012000F0BDFCBB
:10035000AF480078012804D101240020AC4908707E
:1003600003E0641CB4F5FA6FEFD300BF3CB9402141
:10037000AF4800F05AFF8021AD4800F058FF10BD93
:1003800010B50020AB49087040E0A1480078012872
:1003900034D1A948007888BB9848407805282AD1EC
:1003A0009648807E6A2826D19448C07E692822D14A
:1003B0000020A149087000241BE0A048015D8F4A7D
:1003C00004F10D00105C814211D09C4802F10D0136
:1003D0000A6802604A684260896881600120964923
:1003E00008708648407B00F01F0095490870601C2B
:1003F000C4B20C2CE1DB002085490870052000F018
:1004000064FC8C480078401C8A4908708948007850
:100410006428BADB10BD10B50221854800F005FF45
:100420000A2000F052FC0421814800F000FF10BDBA
:1004300010B502217E4800F0FAFE0A2000F045FCCB
:1004400004217B4800F0F1FE10BD10B50221784870
:1004500000F0EBFE0421764800F0E7FE10BD10B579
:100460000821734800F0E3FEFFF7E2FF00BF04211C
:10047000744800F0C0FE0028F9D100BF0421714883
:1004800000F0B9FE0028F9D00821694800F0CDFE3F
:10049000502000F01AFCFFF7BEFF10BD10B5082178
:1004A000634800F0C4FEFFF7B6FF00BF04216548B3
:1004B00000F0A1FE0028F9D100BF0421614800F03E
:1004C0009AFE0028F9D00821594800F0AEFE5020CD
:1004D00000F0FBFBFFF7ACFF10BD10B500240121BD
:1004E000534800F0A2FE0221514800F09EFE042174
:1004F0004F4800F09AFE08214D4800F096FE10216A
:100500004B4800F092FE2021494800F08EFE402129
:10051000474800F08AFE8021454800F086FE4FF4EF
:100520008071434800F081FE4FF40071404800F0B4
:100530007CFEC82000F0C9FBC82000F0C6FBC82024
:1005400000F0C3FBC82000F0C0FBC82000F0BDFBDA
:1005500010BD70B504462546102D75D2DFE805F0B4
:10056000F008192A3B758697A8B9CADBF1EEEDECC5
:1005700002212F4800F05BFE04212D4800F055FEBB
:1005800008212B4800F051FE1021294800F04DFEB3
:100590003DE10221264800F048FE0421244800F0F5
:1005A00046FE0821224800F040FE1021204800F0BD
:1005B0003CFE2CE102211E4800F039FE04211C48BB
:1005C00000F035FE08211A4800F02FFE10211848CF
:1005D00000F02BFE1BE10221154800F026FE04214D
:1005E000134800F022FE0821114800F020FE1021DF
:1005F0000F4800F01AFE0AE1003801400C0200200A
:1006000000000020B8010020BC0100207002002082
:10061000B70100205A5508000D11000000D56A6985
:10062000000000005A5506000D0300C56A6900006D
:1006300000100140C8010020C9010020640400200E
:10064000C1010020000C0140D0E00221DF4800F091
:10065000EEFD0421DD4800F0E8FD0821DB4800F054
:10066000E6FD1021D94800F0E0FDD0E00221D74896
:1006700000F0DBFD0421D54800F0D9FD0821D34866
:1006800000F0D5FD1021D14800F0CFFDBFE00221E0
:10069000CE4800F0CCFD0421CC4800F0C8FD082174
:1006A000CA4800F0C4FD1021C84800F0BEFDAEE00D
:1006B0000221C64800F0B9FD0421C44800F0B5FD90
:1006C0000821C24800F0B1FD1021C04800F0AFFD84
:1006D0009DE00221BD4800F0AAFD0421BB4800F0C6
:1006E000A4FD0821B94800F0A0FD1021B74800F092
:1006F0009EFD8CE00221B54800F097FD0421B3482F
:1007000000F095FD0821B14800F08FFD1021AF48A1
:1007100000F08DFD7BE00221AC4800F088FD042153
:10072000AA4800F084FD0821A84800F07EFD1021B1
:10073000A64800F07CFD6AE036E024E012E000E02C
:1007400043E00221A14800F070FD04219F4800F021
:100750006CFD08219D4800F06AFD10219B4800F0C7
:1007600066FD54E00221994800F061FD042197489C
:1007700000F05BFD0821954800F059FD10219348D9
:1007800000F055FD43E00221904800F04EFD0421A9
:100790008E4800F04CFD08218C4800F048FD1021E7
:1007A0008A4800F044FD32E00221884800F03FFD15
:1007B0000421864800F03BFD0821844800F037FD05
:1007C0001021824800F033FD21E002217F4800F033
:1007D0002CFD04217D4800F028FD08217B4800F015
:1007E00024FD1021794800F020FD10E00221774817
:1007F00000F01BFD0421754800F017FD0821734827
:1008000000F013FD1021714800F00FFD00BF00BF84
:1008100070BD00F01DFA00F085FA4FF4E13000F0F1
:100820009AFA00F0EBF9C82000F04FFAFFF704FD48
:10083000CAE00221664800F0DEFC0028F8D1502012
:1008400000F043FA00206349087063490870634967
:10085000087063490870FFF762FD00206149087065
:100860006149087061490870614800210160416078
:100870008160322561E06D1E2320051E04D00C210D
:10088000AFF27020FFF7C2FC0F20051E04D00C2130
:10089000AFF28020FFF7BAFC56480078012849D112
:1008A00055484078052842D15348007F6A2803D034
:1008B0005148407F6A283AD14D48007808BB4C48DF
:1008C0004078F0B94A484C490D310A6802604A68DC
:1008D0004260896881604848407BC22807D1464809
:1008E000C07D4049087001203F4908701FE0424820
:1008F000407B00F01F003B49087001203A49087016
:1009000015E000203D49087000240DE03848015DE5
:10091000394A04F10D00105C814203D000203249B5
:10092000087003E0601CC4B20C2CEFDB00BF002099
:10093000304908700A2000F0C8F91DB12A48007833
:10094000002898D028480078012825D10A2000F0F6
:10095000BCF900201F4908701F4908701F49087022
:100960001F490870204908701E480078002808DDDB
:100970001C480078062804DA1A480078FFF7E9FDD9
:1009800002E00520FFF7E5FD322000F09EF901218D
:100990000E4800F04CFC09E00520FFF7DAFD32209C
:1009A00000F093F90121094800F041FC4FF49670E2
:1009B00000F08BF90121054800F037FC322000F0EF
:1009C00084F90020FFF7C5FD33E700000010014067
:1009D000000C0140C6010020C3010020C40100201A
:1009E000C5010020C0010020C2010020C701002075
:1009F00064040020B70100200C020020C90100207F
:100A0000704700BFFEE700BFFEE700BFFEE700BF84
:100A1000FEE7704770477047704700000CB5002034
:100A2000019000906C48006840F480306A4908608A
:100A300000BF6948006800F4003000900198401C35
:100A40000190009818B90198B0F5A06FF1D16248F3
:100A5000006800F4003010B10120009001E0002097
:100A600000900098012843D15C48006840F01000D5
:100A70005A4908600846006820F0030008600846EC
:100A8000006840F0020008605348406852494860DE
:100A90000846406848600846406840F48060486006
:100AA0000846406820F47C1048600846406840F4DE
:100AB000E81048600846006840F08070086000BF99
:100AC0004548006800F000700028F9D042484068AE
:100AD00020F00300404948600846406840F00200AA
:100AE000486000BF3C48406800F00C000828F9D17D
:100AF0000CBD10B5FFF792FF10BD10B53648006869
:100B000040F0010034490860084640683449084014
:100B10003149486008460068324908402E4908605B
:100B20000846006820F4802008600846406820F4E9
:100B3000FE0048604FF41F008860FFF7DAFF4FF0B7
:100B400000602949086010BD10B500210020002276
:100B5000214B5B6803F00C0121B1042906D0082960
:100B600028D107E0214B224C236027E01F4B204C6B
:100B7000236023E0184B5B6803F47010164B5B682E
:100B800003F48032022303EB904022B9194B434314
:100B9000174C23600DE0104B5B6803F4003323B166
:100BA000144B4343124C236003E0104B4343104C5F
:100BB000236003E00D4B0E4C236000BF00BF064BCB
:100BC0005B68C3F303130C4CE15C094B1B68CB401F
:100BD000074C236010BD00000010024000200240BE
:100BE0000000FFF8FFFFF6FE08ED00E000127A00BB
:100BF000CC01002000093D00D001002008B50121F2
:100C00005C2000F021FD40F2FF30ADF80000102024
:100C10008DF8030003208DF8020069460A4800F0B1
:100C200057FA40F2FF31084800F0FFFA3720ADF8DC
:100C3000000004208DF8030003208DF802006946AF
:100C4000024800F045FA08BD00100140000C0140C8
:100C500010B56FF0040000F0BCF92E4800682E4972
:100C6000B0FBF1F02D4908700846007800EB400118
:100C7000C1EBC0104FF6FF7101EAC000284908809F
:100C800010BD0146254A12784A434FF0E0235A61CD
:100C900000229A611A46126942F001021A6100BFED
:100CA0004FF0E022106900F001021AB100F4803226
:100CB000002AF5D04FF0E022126922F001024FF035
:100CC000E0231A6100229A6170470146144A128893
:100CD0004A434FF0E0235A6100229A611A46126992
:100CE00042F001021A6100BF4FF0E022106900F0EB
:100CF00001021AB100F48032002AF5D04FF0E02250
:100D0000126922F001024FF0E0231A6100229A6179
:100D100070470000CC01002000127A00E0010020A2
:100D2000E201002010B54FF4A06000F003F910BDFF
:100D3000014600BF704770B504460D4600BF402114
:100D4000634800F08FFE0028F9D0E1B2604800F05F
:100D50001BFE204670BD10B586B00446012144F24A
:100D6000040000F071FC5A4800F0D2FC4FF400700F
:100D7000ADF8140003208DF8160018208DF8170028
:100D800005A9544800F0A4F94FF48060ADF81400B0
:100D900004208DF8170005A94E4800F099F9019438
:100DA0000020ADF80800ADF80A00ADF80C00ADF871
:100DB00010000C20ADF80E0001A9454800F0EBFC36
:100DC00025208DF8000003208DF801008DF8020029
:100DD00001208DF80300684600F0B1F8012240F2CE
:100DE00025513B4800F06FFD0121394800F05FFDBF
:100DF00006B010BD10B540F22551354800F048FE50
:100E0000002864D040F22551314800F06BFE304894
:100E100000F0BEFD304908703048007858B90846E7
:100E200000785A2803D101202C4908704FE0002097
:100E30002A4908704BE02948007801280BD1264840
:100E40000078552803D10220244908703FE0002093
:100E5000224908703BE021480078022807D11E484B
:100E600000781F49087003201C4908702FE01B48B8
:100E70000078032811D118480078194948700846AD
:100E80000078497800EB01201649086000201649D7
:100E9000086004201149087019E0104800780428FF
:100EA00015D10D480178104802680068401C0E4BAF
:100EB00018600E488154184600680A49096888423B
:100EC00005D300200549087001200949087010BDAC
:100ED0000038014000080140E4010020E501002045
:100EE000E6010020EC010020E80100200C020020B7
:100EF000B70100200948804709480047FEE7FEE7A0
:100F0000FEE7FEE7FEE7FEE7FEE7FEE7FEE7FEE7B9
:100F100004480549054A064B70470000FB0A0008D3
:100F200031010008D0040020D00A0020D0060020A3
:100F3000D006002031490143314A1160704770B535
:100F4000002100230F22C47804B32D4C246804F43C
:100F5000E064C4F5E064210AC1F10403CA404478A6
:100F600004FA03F18478144021430901254C0678E2
:100F7000A155047804F01F050124AC4005786D11DB
:100F8000AD0005F1E025C5F8004109E0047804F062
:100F90001F050124AC401C4D0678761145F826400B
:100FA00070BD1A4A0A400243154B1B1F1A60704756
:100FB00039B1134A121D12680243114B1B1D1A60EE
:100FC00006E00F4A121D126882430D4B1B1D1A606A
:100FD0007047042808D14FF0E021096941F004016D
:100FE0004FF0E022116107E04FF0E021096921F0A4
:100FF00004014FF0E0221161704700000000FA0583
:101000000CED00E000E400E080E100E080FFFF1F65
:1010100010B50446CC48844208D10121042000F0D8
:101020002DFB0021042000F029FB46E0C748844244
:1010300008D10121082000F021FB0021082000F048
:101040001DFB3AE0C248844208D10121102000F083
:1010500015FB0021102000F011FB2EE0BD4884425A
:1010600008D10121202000F009FB0021202000F000
:1010700005FB22E0B848844208D10121402000F05D
:10108000FDFA0021402000F0F9FA16E0B34884424E
:1010900008D10121802000F0F1FA0021802000F029
:1010A000EDFA0AE0AE48844207D10121801500F034
:1010B000E5FA0021A01500F0E1FA10BD10B50121FC
:1010C000084600F0DBFA0021012000F0D7FA10BD3D
:1010D0002DE9F041024600250026002000230024CF
:1010E000002791F803C00CF00F0591F803C00CF035
:1010F000100CBCF1000F03D091F802C04CEA0505BA
:1011000091F800C0BCF1000F31D0146800202BE032
:101110004FF0010C0CFA00F3B1F800C00CEA030622
:101120009E4220D183004FF00F0C0CFA03F7BC4312
:1011300005FA03FC4CEA040491F803C0BCF1280F43
:1011400006D14FF0010C0CFA00FCC2F814C00AE002
:1011500091F803C0BCF1480F05D14FF0010C0CFA17
:1011600000FCC2F810C0401C0828D1D31460B1F8AC
:1011700000C0BCF1FF0F34DD546800202EE000F108
:10118000080C4FF0010808FA0CF3B1F800C00CEAA3
:1011900003069E4221D183004FF00F0C0CFA03F797
:1011A000BC4305FA03FC4CEA040491F803C0BCF10B
:1011B000280F05D100F1080C08FA0CF8C2F81480C9
:1011C00091F803C0BCF1480F07D100F1080C4FF0B3
:1011D000010808FA0CF8C2F81080401C0828CED389
:1011E0005460BDE8F0814FF6FF71018002218170EB
:1011F0000421C17070470246002093680B400BB178
:10120000012000E0002070470146886880B27047E6
:1012100002460020D3680B400BB1012000E0002003
:1012200070470146C86880B27047016170474161EC
:1012300070470AB1016100E041617047C1607047C9
:101240004FF480320A4382618161826182698269DE
:10125000704702460020434B18684FF680731840D1
:1012600040EA021008433F4B186070473E49C8618E
:101270007047F0B50A46002300240021002500F045
:101280000046B6F1004F02D1364EF16901E0354E0D
:101290007168C0F3034583B200F44016B6F5401FF1
:1012A00008D121F070612F4E766826F070662D4FC0
:1012B0007E6012E000F48016B6F5801F06D103268A
:1012C00006FA05F4A14341F0706106E0460D3601CF
:1012D00003FA06F6B14341F0706122B1460D3601C2
:1012E00003FA06F6314300F00046B6F1004F02D192
:1012F0001C4EF16101E01B4E7160F0BD30B5002263
:101300008B071C0F0F2303FA04F2164B08338C10C3
:1013100053F824309343134C08348D1044F825308F
:1013200023468C1053F824308C07240F00FA04F461
:1013300023430C4C08348D1044F8253030BD0A4945
:10134000DC3108607047000000080140000C0140DB
:10135000001001400014014000180140001C014031
:10136000002001400000014000002042DF480068EA
:1013700040F00100DD49086008464068DC4908404B
:10138000DA49486008460068DA490840D7490860E9
:101390000846006820F4802008600846406820F471
:1013A000FE0048604FF41F0088607047CF4909680D
:1013B00021F48031CD4A11601146096821F4802161
:1013C0001160B0F5803F03D0B0F5802F0ED106E05C
:1013D000C649096841F48031C44A116007E0C34935
:1013E000096841F4A021C14A116000E000BF00BFBC
:1013F000704710B501460022002300204A11012A3F
:1014000002D1BA4C236806E0022A02D1B74C236A03
:1014100001E0B64C636A01F01F02012494401C40B5
:101420000CB1012000E0002010BD38B50020009074
:101430000024002500BF3120FFF7DBFF05460098A0
:10144000401C00900098B0F5A06F01D0002DF2D0A4
:101450003120FFF7CEFF08B1012400E00024204630
:1014600038BD01460020A14A106820F0F80040EA8B
:10147000C10010607047A049086070470246002014
:101480009A4B586820F47C1042EA01031843974BAA
:101490005860704798490866704701460020934A93
:1014A000506820F003000843506070478F48406840
:1014B00000F00C007047014600208C4A506820F074
:1014C000F00008435060704701460020874A50688A
:1014D00020F4E06008435060704701460020834AD2
:1014E000506820F4605040EAC1005060704729B154
:1014F0007E4A527A02437D4B5A7204E07B4A527A0A
:1015000082437A4B5A7270477B49D83108607047E2
:1015100001460020754A506820F44040084350605E
:1015200070470021714A20321170704A82F82010F1
:10153000012802D004280AD104E001216B4A20329C
:10154000117005E00521694A2032117000E000BFEA
:1015500000BF70476949086070476449096A0143E0
:10156000624A11627047654944390860704730B576
:1015700000210022002400235C4D6D6805F00C0161
:1015800021B1042905D0082923D105E05C4D05606F
:1015900022E05B4D05601FE0544D6D6805F470124C
:1015A000524D6D6805F48034022505EB92421CB95A
:1015B000544D554305600BE04C4D6D6805F4003506
:1015C0001DB1504D5543056002E04D4D554305603A
:1015D00002E04B4D056000BF00BF444D6D6805F053
:1015E000F0010909484D6B5C0568DD4045603F4DE1
:1015F0006D6805F4E061090A434D6B5C4568DD40A8
:1016000085603A4D6D6805F46051C90A3E4D6B5CCA
:101610004568DD40C560354D6D6805F44041890B76
:101620003A4D6B5CC568B5FBF3F5056130BD29B17A
:101630002E4A526902432D4B5A6104E02B4A5269EB
:1016400082432A4B5A61704729B1284A9269024362
:10165000264B9A6104E0254A92698243234B9A61A2
:10166000704729B1214AD2690243204BDA6104E074
:101670001E4AD26982431D4BDA61704729B11B4A69
:10168000D2680243194BDA6004E0184AD2688243F8
:10169000164BDA60704729B1144A12690243134BA2
:1016A0001A6104E0114A12698243104B1A617047B3
:1016B00012494039086070470F49C86470470B49A8
:1016C000C87170470948406A40F080700749486215
:1016D000704701460020054A92680A400AB101207D
:1016E00000E00020704701498872704700100240F6
:1016F0000000FFF8FFFFF6FE000042428004424275
:1017000000127A0000093D00F601002006020020C8
:1017100010B50446FB48844209D101218803FFF734
:10172000ADFF00214FF48040FFF7A8FF32E0F648FC
:10173000844209D101214804FFF7ADFF00214FF495
:101740000030FFF7A8FF25E0F048844209D10121CD
:101750008804FFF7A0FF00214FF48020FFF79BFFD4
:1017600018E0EB48844209D10121C804FFF793FF38
:1017700000214FF40020FFF78EFF0BE0E548844284
:1017800008D101210805FFF786FF00214FF48010E2
:10179000FFF781FF10BD2DE9F04786B005460E46E4
:1017A0000024A24600BFA1460027B08900B100BFB7
:1017B0002F462C8A4CF6FF700440F08804432C829C
:1017C000AC894EF6F3100440B08831890843718922
:1017D00008430443AC81AC8A4FF6FF400440B08913
:1017E0000443AC8201A8FFF7C2FEC648874202D17B
:1017F000DDF810A001E0DDF80CA0A88900F400409D
:1018000040B10AEBCA0000EB0A1031684900B0FB96
:10181000F1F807E00AEBCA0000EB0A103168890012
:10182000B0FBF1F86420B8FBF0F00401200964215A
:1018300001FB1089A88900F4004040B1322000EB80
:10184000C900B0FBF1F000F00700044308E03220CB
:1018500000EB09106421B0FBF1F000F00F0004432D
:101860002C8106B0BDE8F0874FF4165101600021CD
:101870008180C18001810C214181002181817047DB
:1018800010B502460020108A4FF2FF0318400B8863
:101890004C8823438C882343CC88234318431082ED
:1018A00010BD0021018041808180C180704721B13D
:1018B000828942F40052828104E082894DF6FF73EE
:1018C0001A4082817047F0B50346002400260025A7
:1018D000002040F66A17B94200D100BF1846C1F394
:1018E000421401F01F06012707FA06F5012C01D169
:1018F0000C3004E0022C01D1103000E014301AB199
:1019000007682F43076002E00768AF430760F0BD38
:101910001AB1838A0B43838202E0838A8B438382DA
:101920007047028A4FF6F0731A400282028A0A4315
:101930000282704782894FF2FF731A408281828946
:101940000A438281704721B1828942F0020282817A
:1019500004E082894FF6FD731A4082817047028A43
:101960004FF6DF731A400282028A0A4302827047EE
:1019700021B1028A42F48042028204E0028A4BF6DC
:10198000FF731A4002827047C1F3080282807047D9
:1019900001468888C0F308007047818941F0010141
:1019A00081817047028BD2B20283028B42EA01220C
:1019B00002837047028B02F47F420283028B0A4348
:1019C0000283704721B1828A42F02002828204E0C1
:1019D000828A4FF6DF731A408282704721B1828A71
:1019E00042F01002828204E0828A4FF6EF731A40BE
:1019F0008282704721B1828A42F00802828204E02A
:101A0000828A4FF6F7731A408282704721B1828929
:101A100042F40042828103E08289C2F30E02828195
:101A2000704721B1828A42F40062828204E0828A95
:101A30004FF2FF731A4082827047828A4FF6FB731F
:101A40001A408282828A0A438282704721B1828A46
:101A500042F00202828204E0828A4FF6FD731A404D
:101A60008282704702460020B1F5007F00D100BF9E
:101A700013880B400BB1012000E00020704701F4F7
:101A80000072B2F5007F00D100BFCA4302807047E8
:101A900070B50246002400230025002040F66A1697
:101AA000B14200D100BFC1F3421501F01F0301266E
:101AB00006FA03F3012D02D19689334006E0022D88
:101AC00002D1168A334001E0968A33400C12012677
:101AD00006FA04F41688344013B10CB1012000E07A
:101AE000002070BD10B50022002340F66A14A14208
:101AF00000D100BF0A1201249440A3B2DC43048049
:101B000010BD000000380140004400400048004083
:101B1000004C0040005000407047032A40F23080E3
:101B200010F0030C00F0158011F8013BBCF1020F1E
:101B3000624498BF11F801CB00F8013B38BF11F89F
:101B4000013BA2F1040298BF00F801CB38BF00F8B6
:101B5000013B11F0030300F04B80083AC0F008800D
:101B600051F8043B083A51F804CBA0E80810F5E717
:101B7000121D5CBF51F8043B40F8043BAFF30080FA
:101B8000D20724BF11F8013B11F801CB48BF11F86F
:101B9000012B24BF00F8013B00F801CB48BF00F83F
:101BA000012B70474FF000020429C0F0128010F0A2
:101BB000030C00F05180CCF1040CBCF1020F18BFF3
:101BC00000F8012BA8BF20F8022BA1EB0C0100F0BC
:101BD00043B85FEAC17C24BF00F8012B00F8012B59
:101BE00048BF00F8012B7047704770477047704737
:101BF00010B5203AC0F00B80B1E81850203AA0E8A8
:101C00001850B1E81850A0E81850BFF4F5AF5FEADB
:101C1000027C24BFB1E81850A0E8185044BF18C98E
:101C200018C0BDE810405FEA827C24BF51F8043B35
:101C300040F8043B08BF7047D20728BF31F8023B89
:101C400048BF11F8012B28BF20F8023B48BF00F81D
:101C5000012B70474FF0000200B51346944696469C
:101C6000203922BFA0E80C50A0E80C50B1F12001AF
:101C7000BFF4F7AF090728BFA0E80C5048BF0CC05D
:101C80005DF804EB890028BF40F8042B08BF7047BB
:101C900048BF20F8022B11F0804F18BF00F8012B2D
:101CA0007047754600F02CF8AE460500694653466D
:101CB00020F00700854618B020B5FFF729F9BDE8E8
:101CC00020404FF000064FF000074FF000084FF0A3
:101CD000000B21F00701AC46ACE8C009ACE8C00934
:101CE000ACE8C009ACE8C0098D46704710B50446A1
:101CF000AFF300802046BDE81040FEF780BA000038
:101D00000048704770040020281D000800000020D3
:101D10000C0200006C0100080C1E00080C020020E0
:101D2000C4080000C8010008145A5506130D063CEB
:101D3000C86A690A12032AC50A1A080A2D50010244
:101D40001A0C120C1B0D020C2312027A311C120504
:101D50007A1C0C112B071E0C1207230D1B5ADE0BCD
:101D600022195ADC3E221C332C01DA111B193D22A8
:101D70001A2B01DF0C12134B0D182732C8196B49AF
:101D800049397C112407FFFF5A1FA212205AE2484A
:101D9000221F390B120E130D211301041301035CD2
:101DA0000F04071D121E3A011D49A2110A2B17A28A
:101DB0005A1B9639267B01DD262924217AE5267BCC
:101DC00002E0266A02B03A1CBE217AE6267B03E1D5
:101DD000263A0357392652035AE7D6121D391A49B3
:101DE000AECB071EEC190A7A252A12220410E46AE7
:101DF000694999117CA24A041200081A02030406D8
:0C1E0000070809292269262502040608AB
:0400000508000131BD
:00000001FF
