:03000000020C6887
:0C0C6800787FE4F6D8FD75817D020CAFAA
:10108500000000000000000000000000000000005B
:0610950000000000000055
:090E9800014F00014C000149006A
:10105100C2AC438920759850758DFD758BFDC29882
:0A106100D28ED2AF758780D2AC2288
:03002300020F28A1
:100F2800C0E0C0D075D018309833C298E521D3946A
:100F38000B40028025743C2521F8A699E53CB402B3
:100F4800190521E521B40B0DD3940D500875210026
:100F5800752E028008752E018003752100D0D0D02F
:020F6800E03275
:080003008F993099FDC299228A
:060D7B008B5B8A5C895DC0
:100D8100785E7C007D007BFF7A1079857E007F0B89
:100D91001209AEE4F569F56AFDFCAB5BAA5CA95DDD
:100DA1008D828C831209EDFF745E2DF8A6070DBDAF
:100DB10000010CED640B4C70E17B007A0079607DE1
:100DC10006120DEB8E698F6A856A67E569F566E43F
:100DD100FCFD745E2DF8E6FF1200030DBD00010C51
:090DE100C3ED940BEC940040E911
:010DEA0022E6
:020E44008F58C5
:100E460078597C007D007BFF7A1079907E007F0BBD
:100E56001209AEE4FFFEFD742F2DF8E6FC74592D41
:100E6600F8A6040DBD0BF075598285585C7B007A97
:100E760000795B7D06120DEB8F628E61756383E4EC
:100E8600FD74592DF8E6FF1200030DEDC3940B40D7
:010E9600F06B
:010E97002238
:10071B008208210000000000A6E38382082200016A
:10072B00010000BCA9838208220001020000D84608
:10073B00838208220002010000718C838208220050
:10074B00020200001563838208220003010000717E
:10075B008C838208220003020000718C83820822A2
:10076B000003030000718C8382082300000000004B
:10077B004BF78382082300010000004BF7838208AC
:10078B0023000200000086D28382082300030000AE
:10079B00003DCE8382082300040000001C99838255
:1007AB0008230005000000A78583820823000600AC
:1007BB0000006AA0838208230007000000D1BC83DD
:1007CB008208230008000000280E838208230009FA
:1007DB00000000931283820823000A0000005E379A
:1007EB0083820823000B000000E52B838208230083
:1007FB000C000000C47C83820823000D000000A3C2
:10080B003A83820823000E0000000AF0838208233B
:10081B00000F00000009598382082300110100001A
:10082B00A33A8382082300110200000AF083820896
:10083B0023001103000009598382082300120000D2
:10084B000000008382082300130000000000838255
:10085B00082300EE000000000083820823000C0137
:10086B000000C47C83820823000D010000A33A839F
:10087B00820823000D020000C7D583820823000DD8
:10088B00030000C7D583820823000E0100006E1FF2
:10089B0083820823000E0200000AF08382082300E3
:1008AB000F010000095983820823000F0200005139
:1008BB002883820823001000000000008382082494
:1008CB00000000000021F7838208240000010000D3
:0308DB001F668312
:0D0EA1000B70820824000000000000008398
:0510DC00D290C2912238
:0510E100C290D2912233
:0910B800D290D2917F6402000E77
:0910C100C293C296D295D294228A
:0910CA00D293D296C295C2942281
:0910D300D293D296D295D2942258
:020DEB008D6B0E
:100DED00756C84756D0874FFF56EF56FE4FDEDC3DC
:100DFD00956B503E1209D4626FE40429F9E43AFA76
:100E0D00E4FCE56F5401D39400E49400E56E4012C8
:100E1D0013FEE56F13FFE56C6EF56EE56D6FF56F07
:100E2D008009C313F56EE56F13F56F0CBC08D30D78
:060E3D0080BCAE6EAF6F39
:010E4300228C
:10002600E4F554E54A600302071AE54B24D0700351
:1000360002018424F070030204FD24F0700302031D
:100046003C24F070030202FB24C070030201142456
:10005600F0607324F0700302015C24B060030207B1
:100066001AE552705EE55324EF60221460432402C1
:1000760070517BFF7A07791B120D7B1210DC751607
:1000860010750E10755200755311757C01E516C377
:100096009408400302071A1210E1E51660030207EE
:1000A6001A1210B875160C75131475520075531282
:1000B600227BFF7A0879BD120D7B755200755313AA
:1000C6000203E20204F6E5527041E553244F60282C
:1000D600146035240270347BFF7A077952120D7B47
:1000E6001210DC7BFF7A087923120D7B7516F075EA
:1000F60052007553B102031DE51670051210B88043
:10010600007552007553B222E4F57C0204F6E552FE
:100116007041E553245F6028146035240270347BF7
:10012600FF7A07795D120D7B1210E17BFF7A087961
:100136002E120D7B7516F07552007553A102031D24
:10014600E51670051210B880007552007553A2228C
:10015600E4F57C0204F6E5527021E5532440701B59
:100166007BFF7A077968120D7B757C011210B87BCC
:10017600FF7A087939120D7BE4F57C0204F6E55224
:1001860060030202F8E55324D0B4080040030202DB
:10019600F89001A575F003A4C58325F0C583730205
:1001A60001BD0201D50201E602020E02029602021A
:1001B600A60202D10202E17BFF7A077926120D7BA5
:1001C600750E10E4F517757C01F5527553312275DD
:1001D60013F07511281210D37BFF7A0779D6807C2D
:1001E600208116E5136012D2007513F075112012E6
:1001F60010DC75520075533322E513600302071AAB
:10020600C200F55275533622E51160383083063048
:10021600810302071A30830620810302071AE517B5
:10022600D39405400E30810B1210B87552007553E9
:1002360034804B30830302071A30810302071A12F7
:1002460010B88055E511600302071AC2001210B8F3
:100256003083133081107BFF7A087986120D7B7507
:1002660052007553322230830620810302071A207A
:10027600831030810D7552007553341210CA7513F0
:10028600282230830302071A30810302071A8009E5
:100296007BFF7A0779EC120D7B7552007553352278
:1002A6002081141210D3E4F517F5527553377BFFEE
:1002B6007A087944020D7BE4F54C7BFF7A08797065
:1002C600120D7B7BFF7A08797080067BFF7A0779AF
:1002D600EC120D7B75520075533722208204C292B0
:1002E60080F9C2947FDC7E0512106FD294C200E4BE
:1002F600F57C0204F6E552703AE553249E601C0430
:1003060070317BFF7A077947120D7B7513107512D2
:1003160008755200755362757C01227F0512109B89
:100326001210B87BFF7A0779EC120D7B75520075B7
:100336005363220204F6E55260030204F6E55324F1
:10034600B0B4100040030204F690035D75F003A4F8
:10035600C58325F0C5837302038D0203AB0203C573
:100366000203E60203F302040302041E02042D0242
:10037600045602046A0204CD0204F60204D60204FC
:10038600F30204F60203967BFF7A077931120D7B9E
:100396007512107513101210E1E4F50FF55275532E
:1003A600517510F022E512600CE50FC3940A500354
:1003B60002071A80031210B875520075535222E5CF
:1003C60012D394004007755200755359227BFF7A69
:1003D6000879A7120D7B75520075535AE4F57C22F5
:1003E600E512600302071AF552755354221210B82B
:1003F600120FE475103C75520075535522E51060D6
:100406000D20810302071A75520075535622755244
:1004160000755359751378221210E1E4F50F751221
:100426000CF55275535722E512601EE50FC394C8AA
:10043600500302071A755200755358E512D39400FB
:10044600500302071AE4F51222755200755358221A
:10045600E512600302071AF5527553597510A07517
:1004660013788021E51270031210B8E50F6007E5D6
:1004760010600302071AE50F600EE510700AE51317
:1004860060030210E10210B8E50F7012E510600E6D
:100496001210B87BFF7A0879A7120D7B8014E50F3E
:1004A6007010E510700CF55275535C1210B8751388
:1004B6001022300109C20175520075535C22755233
:1004C6000075535AE4F57C754A00754B30020645B3
:1004D600E50FC39464500302071A1210B87BFF7A23
:1004E6000779EC120D7B75520075535D22E4F57C9D
:1004F600754A00754B9022E5526003020711E553D9
:1005060024C0B40C00400302071190051E75F003C9
:10051600A4C58325F0C5837302054202055802056A
:10052600F102064C02066702067E0206920206A643
:100536000206DD0206F102070202070E750D107BA8
:10054600FF7A07793C120D7B755200755341E4F52D
:100556004922E54960030205EAE50D70030205EA52
:10056600E55145507010F54FE5176003434F01E51F
:100576000F6003434F02E54F606124FE605D146027
:100586002424027059E550701AE551146005047070
:1005960012801EE50D6047E517600302071A7549CC
:1005A60001802C8039E5507030E5511460100470DC
:1005B60028750D101210DC75500075510122E50DDD
:1005C6006015E517600302071A754901754C01F5B8
:1005D60050F551F5528010800580031210DCE4F5C9
:1005E60050F5512275520075534222208305121090
:1005F600DC80F87F0A7E0012106F12106B12106BEF
:1006060012106B12106B12106BD29275131012101F
:10061600B87BFF7A087991120D7B7BFF7A08799176
:10062600120D7B7BFF7A087991120D7BE54CB401A4
:10063600087552007553438006754A00754B307530
:10064600520075533022750D141210E17513087B94
:10065600FF7A0779EC120D7BE4F50FF552755344DA
:1006660022E50D600CE50FC3940A500302071A80B9
:100676000075520075534522850D0BE50DD3940088
:10068600500302071A75520075534622E50D6003A2
:1006960002071A1210B8120FE4755200755347225A
:1006A600E50F70701210E175130C1210CA20840B3E
:1006B6001210D37BFF7A0779EC800DE513700C12CC
:1006C60010D37BFF7A0779F7120D7BE4F50F850BC4
:1006D6000DF55275534822E50D6009E50FC3940ADE
:1006E6004032800075520075534922E50DD39400BF
:1006F6004003750D0275520075534A22E50D7014BC
:10070600F55275534B1210B8E4F57C754A00754BDB
:0407160090751308BF
:01071A0022BC
:100BCB00E4F555E52E64026003020C56750AF0F548
:100BDB0054743C2554F8E6FF742F2554F8A607747B
:100BEB003C2554F8E4F60554E554B40BE4E4F52E37
:100BFB00E539B40306E530640860057555068037A2
:100C0B008531228532238533248534258535268508
:100C1B003627C2AF7B007A0079227D06120DEBAD31
:100C2B0007AC06AF37EFFEE538FFD2AFED6F7002C2
:100C3B00EC6E6003755501E555700BAB34AD33AFFE
:100C4B0031120A1A8005AF55120E44E4F554742F75
:0C0C5B002554F8E4F60554E554B40BF2FF
:010C6700226A
:100A1A008D568B57EF24DE603D24FE7003020B1DBA
:100A2A0024E47003020B20241F6003020B23754A7F
:100A3A0000754B10755200755310E4F550F551F5D9
:100A4A0014F508F515F50FF510F517F516F511F566
:100A5A0012F50DF50B22E556B40218E557B4021348
:100A6A00308318200015754A00754B607552007561
:100A7A00536122E54B6490454A60057F04020B25C9
:100A8A00E556B40112E557B4010D754A00754B30AD
:100A9A0075520075533022E556B40112E557B40277
:100AAA000D754A00754B5075520075535022E55624
:100ABA00B40217E557B40112754A00754B407552D6
:100ACA0000755340E4F550F55122E556B40312E59A
:100ADA0057B4010D754A00754BB07552007553B085
:100AEA0022E556B40312E557B4020D754A00754B58
:100AFA00A07552007553A022E556B40312E557B407
:100B0A00030D754A00754BC07552007553C0227F9C
:0F0B1A00038008020F6A0200207F02120E44229D
:100F6A007BFF7A0879C8120D7BAF8053070FC374D1
:100F7A000F9FFFAEA05306E0EEFD3395E0FCED6453
:100F8A00E04C70147F5012000EAF8053070FC374E9
:100F9A000F9FFFAEA05306E0C374E09EFE42070215
:020FAA0010161F
:10101600EF70078F7475750180058F74E4F575F5AB
:1010260058755900755A70AB58AA59A95A020D7BC2
:100B2900EF540FB409004003020BB9900B3BF828AE
:100B39002873020B56020B61020B6C020B77020B36
:100B490082020B8D020B98020BA3020BAE7555FFA7
:100B590075560775577380617555FF755607755733
:100B69007E80567555FF755607755789804B7555A3
:100B7900FF75560775579480407555FF755607756B
:100B8900579F80357555FF7556077557AA802A7581
:100B990055FF7556077557B5801F7555FF7556076B
:100BA9007557C080147555FF7556077557CB800961
:100BB9007555FF75560875575AAB55AA56A9570268
:020BC9000D7BA2
:0100200022BD
:100FE400E57B540FFEE4F57BE515C39464400343AD
:100FF4007B01E50FC394644003437B02E517C3946C
:10100400644003437B08E57B540FFF6E6003120BBF
:0110140029B2
:0110150022B8
:04106B007FC87E00BC
:10106F00EF1FAA0670011E4A600B7D6EEDD3940030
:05107F0040EE1D80F7AA
:011084002249
:100EE50005FF65E5CB06FF8005295514FF81050043
:100EF50000000000000000000000000000EE9F0957
:100F0500FFB023001B01365B07FFB001001C561420
:100F1500FF81050202000000000000000002010040
:030F250000CA0AF5
:060EAE00017B00017C0045
:100FAC00757C01121036E4F57CF52ED29CE50A70A6
:100FBC0018750AF0E517C394FA400ED201754A0071
:100FCC00754B5075520075535F120BCB120026E512
:080FDC007C70DA120FE480D5ED
:03000B00020CF4F0
:100CF400C0E0C0D0758ACC758CF820800BE515D384
:100D040094FA50070515800375150020810BE50F33
:100D1400D394FA5007050F8003750F0020830BE569
:100D240017D394FA5007051780037517000514E5C7
:100D340014C394FA403C750801751400E51660026A
:100D44001516E51160021511E51260021512E50D84
:100D54006002150DE50D6002150DE5106002151019
:100D6400E50E6002150EE51360021513E50A600234
:070D7400150AD0D0D0E032D7
:100EB400011400010800011500010F0001100001D8
:100EC4001700011600011100011200010D00010BB1
:100ED40000010E00011300010AF0010C00010900D9
:0C10AC00758921758ACC758CF8D28C22D5
:10000E00EFD39400400B7E8D7D05DDFEDEFA1F8062
:01001E00EFF2
:01001F0022BE
:10109B00AC07ECD3940040087FC812000E1C80F202
:0110AB002222
:10103600754A00754B90755200755390E4F514F59A
:0B104600081210AC12105175A8922285
:100C7400020FACE493A3F8E493A34003F68001F2DB
:100C840008DFF48029E493A3F85407240CC8C33381
:100C9400C4540F4420C8834004F456800146F6DF50
:100CA400E4800B0102040810204080900E98E47E3A
:100CB400019360BCA3FF543F30E509541FFEE49345
:100CC400A360010ECF54C025E060A840B8E493A30C
:100CD400FAE493A3F8E493A3C8C582C8CAC583CA37
:100CE400F0A3C8C582C8CAC583CADFE9DEE780BEEF
:010EE400000D
:1008DE00E709F608DFFA8046E709F208DFFA803EFC
:1008EE0088828C83E709F0A3DFFA8032E309F608E9
:1008FE00DFFA8078E309F208DFFA807088828C8351
:10090E00E309F0A3DFFA806489828A83E0A3F60804
:10091E00DFFA805889828A83E0A3F208DFFA804CDE
:10092E0080D280FA80C680D4806980F280338010B5
:10093E0080A680EA809A80A880DA80E280CA80331E
:10094E0089828A83ECFAE493A3C8C582C8CCC58396
:10095E00CCF0A3C8C582C8CCC583CCDFE9DEE78066
:10096E000D89828A83E493A3F608DFF9ECFAA9F0E5
:10097E00EDFB2289828A83ECFAE0A3C8C582C8CC3B
:10098E00C583CCF0A3C8C582C8CCC583CCDFEADE54
:10099E00E880DB89828A83E493A3F208DFF980CCB6
:1009AE0088F0EF60010E4E60C388F0ED2402B404AF
:1009BE000050B9F582EB2402B4040050AF23234556
:0609CE00822390092E7344
:1009D400BB010689828A83E0225002E722BBFE0221
:0909E400E32289828A83E4932254
:1009ED00BB010CE58229F582E5833AF583E02250BF
:1009FD0006E92582F8E622BBFE06E92582F8E22209
:0D0A0D00E58229F582E5833AF583E4932222
:00000001FF
