:03000000020C6689
:0C0C6600787FE4F6D8FD75817D020CADAE
:10108300000000000000000000000000000000005D
:0610930000000000000057
:090E9600014F00014C000149006C
:10104F00C2AC438920759850758DFD758BFDC29884
:0A105F00D28ED2AF758780D2AC228A
:03002300020F26A3
:100F2600C0E0C0D075D018309833C298E521D3946C
:100F36000B40028025743C2521F8A699E53CB402B5
:100F4600190521E521B40B0DD3940D500875210028
:100F5600752E028008752E018003752100D0D0D031
:020F6600E03277
:080003008F993099FDC299228A
:060D79008B5B8A5C895DC2
:100D7F00785E7C007D007BFF7A1079837E007F0B8D
:100D8F001209ACE4F569F56AFDFCAB5BAA5CA95DE1
:100D9F008D828C831209EBFF745E2DF8A6070DBDB3
:100DAF0000010CED640B4C70E17B007A0079607DE3
:100DBF0006120DE98E698F6A856A67E569F566E443
:100DCF00FCFD745E2DF8E6FF1200030DBD00010C53
:090DDF00C3ED940BEC940040E913
:010DE80022E8
:020E42008F58C7
:100E440078597C007D007BFF7A10798E7E007F0BC1
:100E54001209ACE4FFFEFD742F2DF8E6FC74592D45
:100E6400F8A6040DBD0BF075598285585C7B007A99
:100E740000795B7D06120DE98F628E61756383E4F0
:100E8400FD74592DF8E6FF1200030DEDC3940B40D9
:010E9400F06D
:010E9500223A
:100719008208210000000000A6E38382082200016C
:10072900010000BCA9838208220001020000D8460A
:10073900838208220002010000718C838208220052
:100749000202000015638382082200030100007180
:100759008C838208220003020000718C83820822A4
:100769000003030000718C8382082300000000004D
:100779004BF78382082300010000004BF7838208AE
:1007890023000200000086D28382082300030000B0
:10079900003DCE8382082300040000001C99838257
:1007A90008230005000000A78583820823000600AE
:1007B90000006AA0838208230007000000D1BC83DF
:1007C9008208230008000000280E838208230009FC
:1007D900000000931283820823000A0000005E379C
:1007E90083820823000B000000E52B838208230085
:1007F9000C000000C47C83820823000D000000A3C4
:100809003A83820823000E0000000AF0838208233D
:10081900000F00000009598382082300110100001C
:10082900A33A8382082300110200000AF083820898
:1008390023001103000009598382082300120000D4
:100849000000008382082300130000000000838257
:10085900082300EE000000000083820823000C0139
:100869000000C47C83820823000D010000A33A83A1
:10087900820823000D020000C7D583820823000DDA
:10088900030000C7D583820823000E0100006E1FF4
:1008990083820823000E0200000AF08382082300E5
:1008A9000F010000095983820823000F020000513B
:1008B9002883820823001000000000008382082496
:1008C900000000000021F7838208240000010000D5
:0308D9001F668314
:0D0E9F000B7082082400000000000000839A
:0510DA00D290C291223A
:0510DF00C290D2912235
:0910B600D290D2917F6402000E79
:0910BF00C293C296D295D294228C
:0910C800D293D296C295C2942283
:0910D100D293D296D295D294225A
:020DE9008D6B10
:100DEB00756C84756D0874FFF56EF56FE4FDEDC3DE
:100DFB00956B503E1209D2626FE40429F9E43AFA7A
:100E0B00E4FCE56F5401D39400E49400E56E4012CA
:100E1B0013FEE56F13FFE56C6EF56EE56D6FF56F09
:100E2B008009C313F56EE56F13F56F0CBC08D30D7A
:060E3B0080BCAE6EAF6F3B
:010E4100228E
:10002600E4F554E54A6003020718E54B24D0700353
:1000360002018424F070030204F924F07003020321
:100046003824F070030202F724C07003020114245E
:10005600F0607324F0700302015C24B060030207B1
:1000660018E552705EE55324EF60221460432402C3
:1000760070517BFF7A077919120D791210DA75160D
:1000860010750E10755200755311757C01E516C377
:10009600940840030207181210DFE51660030207F2
:1000A600181210B675160C75131475520075531286
:1000B600227BFF7A0879BB120D79755200755313AE
:1000C6000203DE0204F2E5527041E553244F602834
:1000D600146035240270347BFF7A077950120D794B
:1000E6001210DA7BFF7A087921120D797516F075F0
:1000F60052007553B1020319E51670051210B68049
:10010600007552007553B222E4F57C0204F2E55202
:100116007041E553245F6028146035240270347BF7
:10012600FF7A07795B120D791210DF7BFF7A087967
:100136002C120D797516F07552007553A10203192C
:10014600E51670051210B680007552007553A2228E
:10015600E4F57C0204F2E5527021E5532440701B5D
:100166007BFF7A077966120D79757C011210B67BD2
:10017600FF7A087937120D79E4F57C0204F2E5522C
:1001860060030202F4E55324D0B4080040030202DF
:10019600F49001A575F003A4C58325F0C583730209
:1001A60001BD0201D50201E602020E02029602021A
:1001B600A60202DF0202EF7BFF7A077924120D798D
:1001C600750E10E4F517757C01F5527553312275DD
:1001D60013F07511281210D17BFF7A0779D4807C31
:1001E600208116E5136012D2007513F075112012E6
:1001F60010DA75520075533322E5136003020718AF
:10020600C200F55275533622E51160383083063048
:100216008103020718308306208103020718E517B9
:10022600D39405400E30810B1210B67552007553EB
:1002360034804B30830302071830810302071812FB
:1002460010B68055E5116003020718C2001210B6F9
:100256003083133081107BFF7A087984120D79750B
:10026600520075533222308306208103020718207C
:10027600831030810D7552007553341210C87513F2
:1002860028223083030207183081030207188009E9
:100296007BFF7A0779EA120D79755200755335227C
:1002A6002081141210D1E4F517F5527553377BFFF0
:1002B6007A087942020D79E4F54CC2947FDC7E051A
:1002C60012106DD2943082FD7BFF7A08796E120D82
:1002D600797BFF7A08796E80067BFF7A0779EA12C6
:1002E6000D7975520075533722C200E4F57C02047D
:1002F600F2E552703AE553249E601C0470317BFF90
:100306007A077945120D7975131075120875520022
:10031600755362757C01227F051210991210B67B07
:10032600FF7A0779EA120D79755200755363220236
:1003360004F2E55260030204F2E55324B0B410005F
:1003460040030204F290035975F003A4C58325F017
:10035600C583730203890203A70203C10203E202F3
:1003660003EF0203FF02041A0204290204520204E4
:10037600660204C90204F20204D20204EF0204F285
:100386000203927BFF7A07792F120D797512107589
:1003960013101210DFE4F50FF5527553517510F076
:1003A60022E512600CE50FC3940A50030207188079
:1003B600031210B675520075535222E512D39400FB
:1003C6004007755200755359227BFF7A0879A512AA
:1003D6000D7975520075535AE4F57C22E5126003D7
:1003E600020718F552755354221210B6120FE27511
:1003F600103C75520075535522E510600D2081039F
:1004060002071875520075535622755200755359D6
:10041600751378221210DFE4F50F75120CF552757C
:10042600535722E512601EE50FC394C85003020716
:1004360018755200755358E512D3940050030207FD
:1004460018E4F5122275520075535822E51260031E
:10045600020718F5527553597510A0751378802147
:10046600E51270031210B6E50F6007E5106003028F
:100476000718E50F600EE510700AE5136003021019
:10048600DF0210B6E50F7012E510600E1210B67B93
:10049600FF7A0879A5120D798014E50F7010E51022
:1004A600700CF55275535C1210B67513102230019C
:1004B60009C20175520075535C2275520075535A74
:1004C600E4F57C754A00754B30020643E50FC3948C
:1004D6006450030207181210B67BFF7A0779EA12F6
:1004E6000D7975520075535D22E4F57C754A0075E9
:1004F6004B9022E552600302070FE55324C0B40C6B
:1005060000400302070F90051A75F003A4C5832562
:10051600F0C5837302053E0205560205EF02064A40
:1005260002066502067C0206900206A40206DB02AB
:1005360006EF02070002070C750D107BFF7A07799C
:100546003A120D79755200755341E4F549C292226B
:10055600E54960030205E8E50D70030205E8E5518B
:1005660045507010F54FE5176003434F01E50F60E6
:1005760003434F02E54F606124FE605D146024244E
:10058600027059E550701AE5511460050470128026
:100596001EE50D6047E517600302071875490180DF
:1005A6002C8039E5507030E55114601004702875C0
:1005B6000D101210DA75500075510122E50D601507
:1005C600E5176003020718754901754C01F550F5EA
:1005D60051F5528010800580031210DAE4F550F5CB
:1005E6005122755200755342222083051210DA807B
:1005F600F87F0A7E0012106D12106912106912102F
:1006060069121069121069D2927513101210B67B16
:10061600FF7A08798F120D797BFF7A08798F120D90
:10062600797BFF7A08798F120D79E54CB40108754C
:1006360052007553438006754A00754B307552005B
:1006460075533022750D141210DF7513087BFF7A6F
:100656000779EA120D79E4F50FF55275534422E550
:100666000D600CE50FC3940A50030207188000754D
:10067600520075534522850D0BE50DD394005003AA
:1006860002071875520075534622E50D60030207EE
:10069600181210B6120FE275520075534722E50F75
:1006A60070701210DF75130C1210C820840B121014
:1006B600D17BFF7A0779EA800DE513700C1210D111
:1006C6007BFF7A0779F5120D79E4F50F850B0DF5A9
:1006D6005275534822E50D6009E50FC3940A40326E
:1006E600800075520075534922E50DD394004003EE
:1006F600750D0275520075534A22E50D7014F552B8
:1007060075534B1210B6E4F57C754A00754B90751F
:020716001308C6
:0107180022BE
:100BC900E4F555E52E64026003020C54750AF0F54C
:100BD90054743C2554F8E6FF742F2554F8A607747D
:100BE9003C2554F8E4F60554E554B40BE4E4F52E39
:100BF900E539B40306E530640860057555068037A4
:100C0900853122853223853324853425853526850A
:100C19003627C2AF7B007A0079227D06120DE9AD35
:100C290007AC06AF37EFFEE538FFD2AFED6F7002C4
:100C3900EC6E6003755501E555700BAB34AD33AF00
:100C490031120A188005AF55120E42E4F554742F7B
:0C0C59002554F8E4F60554E554B40BF201
:010C6500226C
:100A18008D568B57EF24DE603D24FE7003020B1BBE
:100A280024E47003020B1E241F6003020B21754A85
:100A380000754B10755200755310E4F550F551F5DB
:100A480014F508F515F50FF510F517F516F511F568
:100A580012F50DF50B22E556B40218E557B402134A
:100A6800308318200015754A00754B607552007563
:100A7800536122E54B6490454A60057F04020B23CD
:100A8800E556B40112E557B4010D754A00754B30AF
:100A980075520075533022E556B40112E557B40279
:100AA8000D754A00754B5075520075535022E55626
:100AB800B40217E557B40112754A00754B407552D8
:100AC80000755340E4F550F55122E556B40312E59C
:100AD80057B4010D754A00754BB07552007553B087
:100AE80022E556B40312E557B4020D754A00754B5A
:100AF800A07552007553A022E556B40312E557B409
:100B0800030D754A00754BC07552007553C0227F9E
:0F0B1800038008020F680200207F02120E4222A3
:100F68007BFF7A0879C6120D79AF8053070FC374D7
:100F78000F9FFFAEA05306E0EEFD3395E0FCED6455
:100F8800E04C70147F5012000EAF8053070FC374EB
:100F98000F9FFFAEA05306E0C374E09EFE42070217
:020FA800101423
:10101400EF70078F7475750180058F74E4F575F5AD
:1010240058755900755A70AB58AA59A95A020D79C6
:100B2700EF540FB409004003020BB7900B39F828B4
:100B37002873020B54020B5F020B6A020B75020B40
:100B470080020B8B020B96020BA1020BAC7555FFB3
:100B570075560775577180617555FF755607755737
:100B67007C80567555FF755607755787804B7555A9
:100B7700FF75560775579280407555FF755607756F
:100B8700579D80357555FF7556077557A8802A7587
:100B970055FF7556077557B3801F7555FF7556076F
:100BA7007557BE80147555FF7556077557C9800967
:100BB7007555FF755608755758AB55AA56A957026C
:020BC7000D79A6
:0100200022BD
:100FE200E57B540FFEE4F57BE515C39464400343AF
:100FF2007B01E50FC394644003437B02E517C3946E
:10100200644003437B08E57B540FFF6E6003120BC1
:0110120027B6
:0110130022BA
:041069007FC87E00BE
:10106D00EF1FAA0670011E4A600B7D6EEDD3940032
:05107D0040EE1D80F7AC
:01108200224B
:100EE30005FF65E5CB06FF8005295514FF81050045
:100EF30000000000000000000000000000EE9F0959
:100F0300FFB023001B01365B07FFB001001C561422
:100F1300FF81050202000000000000000002010042
:030F230000CA0AF7
:060EAC00017B00017C0047
:100FAA00757C01121034E4F57CF52ED29CE50A70AA
:100FBA0018750AF0E517C394FA400ED201754A0073
:100FCA00754B5075520075535F120BC9120026E516
:080FDA007C70DA120FE280D5F1
:03000B00020CF2F2
:100CF200C0E0C0D0758ACC758CF820800BE515D386
:100D020094FA50070515800375150020810BE50F35
:100D1200D394FA5007050F8003750F0020830BE56B
:100D220017D394FA5007051780037517000514E5C9
:100D320014C394FA403C750801751400E51660026C
:100D42001516E51160021511E51260021512E50D86
:100D52006002150DE50D6002150DE510600215101B
:100D6200E50E6002150EE51360021513E50A600236
:070D7200150AD0D0D0E032D9
:100EB200011400010800011500010F0001100001DA
:100EC2001700011600011100011200010D00010BB3
:100ED20000010E00011300010AF0010C00010900DB
:0C10AA00758921758ACC758CF8D28C22D7
:10000E00EFD39400400B7E8D7D05DDFEDEFA1F8062
:01001E00EFF2
:01001F0022BE
:10109900AC07ECD3940040087FC812000E1C80F204
:0110A9002224
:10103400754A00754B90755200755390E4F514F59C
:0B104400081210AA12104F75A892228B
:100C7200020FAAE493A3F8E493A34003F68001F2DF
:100C820008DFF48029E493A3F85407240CC8C33383
:100C9200C4540F4420C8834004F456800146F6DF52
:100CA200E4800B0102040810204080900E96E47E3E
:100CB200019360BCA3FF543F30E509541FFEE49347
:100CC200A360010ECF54C025E060A840B8E493A30E
:100CD200FAE493A3F8E493A3C8C582C8CAC583CA39
:100CE200F0A3C8C582C8CAC583CADFE9DEE780BEF1
:010EE200000F
:1008DC00E709F608DFFA8046E709F208DFFA803EFE
:1008EC0088828C83E709F0A3DFFA8032E309F608EB
:1008FC00DFFA8078E309F208DFFA807088828C8353
:10090C00E309F0A3DFFA806489828A83E0A3F60806
:10091C00DFFA805889828A83E0A3F208DFFA804CE0
:10092C0080D280FA80C680D4806980F280338010B7
:10093C0080A680EA809A80A880DA80E280CA803320
:10094C0089828A83ECFAE493A3C8C582C8CCC58398
:10095C00CCF0A3C8C582C8CCC583CCDFE9DEE78068
:10096C000D89828A83E493A3F608DFF9ECFAA9F0E7
:10097C00EDFB2289828A83ECFAE0A3C8C582C8CC3D
:10098C00C583CCF0A3C8C582C8CCC583CCDFEADE56
:10099C00E880DB89828A83E493A3F208DFF980CCB8
:1009AC0088F0EF60010E4E60C388F0ED2402B404B1
:1009BC000050B9F582EB2402B4040050AF23234558
:0609CC00822390092C7348
:1009D200BB010689828A83E0225002E722BBFE0223
:0909E200E32289828A83E4932256
:1009EB00BB010CE58229F582E5833AF583E02250C1
:1009FB0006E92582F8E622BBFE06E92582F8E2220B
:0D0A0B00E58229F582E5833AF583E4932224
:00000001FF
