:03000000020C5B94
:0C0C5B00787FE4F6D8FD75817D020CA2C4
:101078000000000000000000000000000000000068
:0610880000000000000062
:090E8B00014F00014C0001490077
:10104400C2AC438920759850758DFD758BFDC2988F
:0A105400D28ED2AF758780D2AC2295
:03002300020F1BAE
:100F1B00C0E0C0D075D018309833C298E521D39477
:100F2B000B40028025743C2521F8A699E53CB402C0
:100F3B00190521E521B40B0DD3940D500875210033
:100F4B00752E028008752E018003752100D0D0D03C
:020F5B00E03282
:080003008F993099FDC299228A
:060D6E008B5B8A5C895DCD
:100D7400785E7C007D007BFF7A1079787E007F0BA3
:100D84001209A1E4F569F56AFDFCAB5BAA5CA95DF7
:100D94008D828C831209E0FF745E2DF8A6070DBDC9
:100DA40000010CED640B4C70E17B007A0079607DEE
:100DB40006120DDE8E698F6A856A67E569F566E459
:100DC400FCFD745E2DF8E6FF1200030DBD00010C5E
:090DD400C3ED940BEC940040E91E
:010DDD0022F3
:020E37008F58D2
:100E390078597C007D007BFF7A1079837E007F0BD7
:100E49001209A1E4FFFEFD742F2DF8E6FC74592D5B
:100E5900F8A6040DBD0BF075598285585C7B007AA4
:100E690000795B7D06120DDE8F628E61756383E406
:100E7900FD74592DF8E6FF1200030DEDC3940B40E4
:010E8900F078
:010E8A002245
:10070E008208210000000000A6E383820822000177
:10071E00010000BCA9838208220001020000D84615
:10072E00838208220002010000718C83820822005D
:10073E00020200001563838208220003010000718B
:10074E008C838208220003020000718C83820822AF
:10075E000003030000718C83820823000000000058
:10076E004BF78382082300010000004BF7838208B9
:10077E0023000200000086D28382082300030000BB
:10078E00003DCE8382082300040000001C99838262
:10079E0008230005000000A78583820823000600B9
:1007AE0000006AA0838208230007000000D1BC83EA
:1007BE008208230008000000280E83820823000907
:1007CE00000000931283820823000A0000005E37A7
:1007DE0083820823000B000000E52B838208230090
:1007EE000C000000C47C83820823000D000000A3CF
:1007FE003A83820823000E0000000AF08382082349
:10080E00000F000000095983820823001101000027
:10081E00A33A8382082300110200000AF0838208A3
:10082E0023001103000009598382082300120000DF
:10083E000000008382082300130000000000838262
:10084E00082300EE000000000083820823000C0144
:10085E000000C47C83820823000D010000A33A83AC
:10086E00820823000D020000C7D583820823000DE5
:10087E00030000C7D583820823000E0100006E1FFF
:10088E0083820823000E0200000AF08382082300F0
:10089E000F010000095983820823000F0200005146
:1008AE0028838208230010000000000083820824A1
:1008BE00000000000021F7838208240000010000E0
:0308CE001F66831F
:0D0E94000B708208240000000000000083A5
:0510CF00D290C2912245
:0510D400C290D2912240
:0910AB00D290D2917F6402000E84
:0910B400C293C296D295D2942297
:0910BD00D293D296C295C294228E
:0910C600D293D296D295D2942265
:020DDE008D6B1B
:100DE000756C84756D0874FFF56EF56FE4FDEDC3E9
:100DF000956B503E1209C7626FE40429F9E43AFA90
:100E0000E4FCE56F5401D39400E49400E56E4012D5
:100E100013FEE56F13FFE56C6EF56EE56D6FF56F14
:100E20008009C313F56EE56F13F56F0CBC08D30D85
:060E300080BCAE6EAF6F46
:010E36002299
:10002600E4F554E54A600302070DE54B24D070035E
:1000360002018424F070030204EE24F0700302032C
:100046002D24F070030202EC24C070030201142474
:10005600F0607324F0700302015C24B060030207B1
:100066000DE552705EE55324EF60221460432402CE
:1000760070517BFF7A07790E120D6E1210CF75162E
:1000860010750E10755200755311757C01E516C377
:100096009408400302070D1210D4E5166003020708
:1000A6000D1210AB75160C7513147552007553129C
:1000B600227BFF7A0879B0120D6E755200755313C4
:1000C6000203D30204E7E5527041E553244F60284A
:1000D600146035240270347BFF7A077945120D6E61
:1000E6001210CF7BFF7A087916120D6E7516F07511
:1000F60052007553B102030EE51670051210AB805F
:10010600007552007553B222E4F57C0204E7E5520D
:100116007041E553245F6028146035240270347BF7
:10012600FF7A077950120D6E1210D47BFF7A087988
:1001360021120D6E7516F07552007553A102030E4D
:10014600E51670051210AB80007552007553A22299
:10015600E4F57C0204E7E5527021E5532440701B68
:100166007BFF7A07795B120D6E757C011210AB7BF3
:10017600FF7A08792C120D6EE4F57C0204E7E5524D
:1001860060030202E9E55324D0B4080040030202EA
:10019600E99001A575F003A4C58325F0C583730214
:1001A60001BD0201D50201E602020E02029602021A
:1001B600A60202D10202E17BFF7A077919120D6EBF
:1001C600750E10E4F517757C01F5527553312275DD
:1001D60013F07511281210C67BFF7A0779C9807C47
:1001E600208116E5136012D2007513F075112012E6
:1001F60010CF75520075533322E513600302070DC5
:10020600C200F55275533622E51160383083063048
:10021600810302070D30830620810302070DE517CF
:10022600D39405400E30810B1210AB7552007553F6
:1002360034804B30830302070D30810302070D1211
:1002460010AB8055E511600302070DC2001210AB1A
:100256003083133081107BFF7A087979120D6E7521
:1002660052007553322230830620810302070D2087
:10027600831030810D7552007553341210BD7513FD
:10028600282230830302070D30810302070D8009FF
:100296007BFF7A0779DF120D6E7552007553352292
:1002A6002081141210C6E4F517F5527553377BFFFB
:1002B6007A087937020D6EE4F54C7BFF7A0879638C
:1002C600120D6E7BFF7A08796380067BFF7A0779C9
:1002D600DF120D6E755200755337223082FDC20053
:1002E600E4F57C0204E7E552703AE553249E601C6F
:1002F6000470317BFF7A07793A120D6E751310750B
:100306001208755200755362757C01227F05121022
:100316008E1210AB7BFF7A0779DF120D6E755200D5
:10032600755363220204E7E55260030204E7E553CE
:1003360024B0B4100040030204E790034E75F003A6
:10034600A4C58325F0C5837302037E02039C0203C2
:10035600B60203D70203E40203F402040F02041EEA
:1003660002044702045B0204BE0204E70204C70259
:1003760004E40204E70203877BFF7A077924120D5F
:100386006E7512107513101210D4E4F50FF5527530
:1003960053517510F022E512600CE50FC3940A5014
:1003A6000302070D80031210AB75520075535222DB
:1003B600E512D394004007755200755359227BFF0E
:1003C6007A08799A120D6E75520075535AE4F57CC7
:1003D60022E512600302070DF552755354221210DE
:1003E600AB120FD775103C75520075535522E510A8
:1003F600600D20810302070D755200755356227554
:100406005200755359751378221210D4E4F50F75FE
:10041600120CF55275535722E512601EE50FC39470
:10042600C8500302070D755200755358E512D39450
:1004360000500302070DE4F5122275520075535859
:1004460022E512600302070DF5527553597510A087
:100456007513788021E51270031210ABE50F600763
:10046600E510600302070DE50F600EE510700AE562
:100476001360030210D40210ABE50F7012E5106092
:100486000E1210AB7BFF7A08799A120D6E8014E576
:100496000F7010E510700CF55275535C1210AB75A9
:1004A600131022300109C20175520075535C227582
:1004B600520075535AE4F57C754A00754B300206B6
:1004C60038E50FC39464500302070D1210AB7BFF8F
:1004D6007A0779DF120D6E75520075535D22E4F5C9
:1004E6007C754A00754B9022E5526003020704E5CD
:1004F6005324C0B40C00400302070490050F75F0A6
:1005060003A4C58325F0C5837302053302054B0298
:1005160005E402063F02065A020671020685020635
:10052600990206D00206E40206F5020701750D10CF
:100536007BFF7A07792F120D6E755200755341E4D1
:10054600F549C29222E54960030205DDE50D700317
:100556000205DDE55145507010F54FE51760034380
:100566004F01E50F6003434F02E54F606124FE60D3
:100576005D14602424027059E550701AE551146028
:1005860005047012801EE50D6047E517600302073B
:100596000D754901802C8039E5507030E5511460A5
:1005A60010047028750D101210CF7550007551018A
:1005B60022E50D6015E517600302070D7549017503
:1005C6004C01F550F551F55280108005800312104C
:1005D600CFE4F550F551227552007553422220831F
:1005E600051210CF80F87F0A7E0012106212105E8C
:1005F60012105E12105E12105E12105ED292751309
:10060600101210AB7BFF7A087984120D6E7BFF7A8D
:10061600087984120D6E7BFF7A087984120D6EE5D7
:100626004CB401087552007553438006754A00752F
:100636004B3075520075533022750D141210D47557
:1006460013087BFF7A0779DF120D6EE4F50FF5527A
:1006560075534422E50D600CE50FC3940A5003025E
:10066600070D800075520075534522850D0BE50D6B
:10067600D39400500302070D75520075534622E5C8
:100686000D600302070D1210AB120FD775520075DD
:10069600534722E50F70701210D475130C1210BD5B
:1006A60020840B1210C67BFF7A0779DF800DE513D5
:1006B600700C1210C67BFF7A0779EA120D6EE4F50C
:1006C6000F850B0DF55275534822E50D6009E50FB0
:1006D600C3940A4032800075520075534922E50DD5
:1006E600D394004003750D0275520075534A22E5F6
:1006F6000D7014F55275534B1210ABE4F57C754A28
:0707060000754B907513080C
:01070D0022C9
:100BBE00E4F555E52E64026003020C49750AF0F562
:100BCE0054743C2554F8E6FF742F2554F8A6077488
:100BDE003C2554F8E4F60554E554B40BE4E4F52E44
:100BEE00E539B40306E530640860057555068037AF
:100BFE008531228532238533248534258535268516
:100C0E003627C2AF7B007A0079227D06120DDEAD4B
:100C1E0007AC06AF37EFFEE538FFD2AFED6F7002CF
:100C2E00EC6E6003755501E555700BAB34AD33AF0B
:100C3E0031120A0D8005AF55120E37E4F554742F9C
:0C0C4E002554F8E4F60554E554B40BF20C
:010C5A002277
:100A0D008D568B57EF24DE603D24FE7003020B10D4
:100A1D0024E47003020B13241F6003020B16754AA6
:100A2D0000754B10755200755310E4F550F551F5E6
:100A3D0014F508F515F50FF510F517F516F511F573
:100A4D0012F50DF50B22E556B40218E557B4021355
:100A5D00308318200015754A00754B60755200756E
:100A6D00536122E54B6490454A60057F04020B18E3
:100A7D00E556B40112E557B4010D754A00754B30BA
:100A8D0075520075533022E556B40112E557B40284
:100A9D000D754A00754B5075520075535022E55631
:100AAD00B40217E557B40112754A00754B407552E3
:100ABD0000755340E4F550F55122E556B40312E5A7
:100ACD0057B4010D754A00754BB07552007553B092
:100ADD0022E556B40312E557B4020D754A00754B65
:100AED00A07552007553A022E556B40312E557B414
:100AFD00030D754A00754BC07552007553C0227FAA
:0F0B0D00038008020F5D0200207F02120E3722C4
:100F5D007BFF7A0879BB120D6EAF8053070FC374F8
:100F6D000F9FFFAEA05306E0EEFD3395E0FCED6460
:100F7D00E04C70147F5012000EAF8053070FC374F6
:100F8D000F9FFFAEA05306E0C374E09EFE42070222
:020F9D00100939
:10100900EF70078F7475750180058F74E4F575F5B8
:1010190058755900755A70AB58AA59A95A020D6EDC
:100B1C00EF540FB409004003020BAC900B2EF828D5
:100B2C002873020B49020B54020B5F020B6A020B77
:100B3C0075020B80020B8B020B96020BA17555FFF5
:100B4C0075560775576680617555FF75560775574D
:100B5C007180567555FF75560775577C804B7555CA
:100B6C00FF75560775578780407555FF7556077585
:100B7C00579280357555FF75560775579D802A75A8
:100B8C0055FF7556077557A8801F7555FF75560785
:100B9C007557B380147555FF7556077557BE800988
:100BAC007555FF75560875574DAB55AA56A9570282
:020BBC000D6EBC
:0100200022BD
:100FD700E57B540FFEE4F57BE515C39464400343BA
:100FE7007B01E50FC394644003437B02E517C39479
:100FF700644003437B08E57B540FFF6E6003120BCD
:011007001CCC
:0110080022C5
:04105E007FC87E00C9
:10106200EF1FAA0670011E4A600B7D6EEDD394003D
:0510720040EE1D80F7B7
:011077002256
:100ED80005FF65E5CB06FF8005295514FF81050050
:100EE80000000000000000000000000000EE9F0964
:100EF800FFB023001B01365B07FFB001001C56142E
:100F0800FF8105020200000000000000000201004D
:030F180000CA0A02
:060EA100017B00017C0052
:100F9F00757C01121029E4F57CF52ED29CE50A70C0
:100FAF0018750AF0E517C394FA400ED201754A007E
:100FBF00754B5075520075535F120BBE120026E52C
:080FCF007C70DA120FD780D507
:03000B00020CE7FD
:100CE700C0E0C0D0758ACC758CF820800BE515D391
:100CF70094FA50070515800375150020810BE50F41
:100D0700D394FA5007050F8003750F0020830BE576
:100D170017D394FA5007051780037517000514E5D4
:100D270014C394FA403C750801751400E516600277
:100D37001516E51160021511E51260021512E50D91
:100D47006002150DE50D6002150DE5106002151026
:100D5700E50E6002150EE51360021513E50A600241
:070D6700150AD0D0D0E032E4
:100EA700011400010800011500010F0001100001E5
:100EB7001700011600011100011200010D00010BBE
:100EC70000010E00011300010AF0010C00010900E6
:0C109F00758921758ACC758CF8D28C22E2
:10000E00EFD39400400B7E8D7D05DDFEDEFA1F8062
:01001E00EFF2
:01001F0022BE
:10108E00AC07ECD3940040087FC812000E1C80F20F
:01109E00222F
:10102900754A00754B90755200755390E4F514F5A7
:0B1039000812109F12104475A89222AC
:100C6700020F9FE493A3F8E493A34003F68001F2F5
:100C770008DFF48029E493A3F85407240CC8C3338E
:100C8700C4540F4420C8834004F456800146F6DF5D
:100C9700E4800B0102040810204080900E8BE47E54
:100CA700019360BCA3FF543F30E509541FFEE49352
:100CB700A360010ECF54C025E060A840B8E493A319
:100CC700FAE493A3F8E493A3C8C582C8CAC583CA44
:100CD700F0A3C8C582C8CAC583CADFE9DEE780BEFC
:010ED700001A
:1008D100E709F608DFFA8046E709F208DFFA803E09
:1008E10088828C83E709F0A3DFFA8032E309F608F6
:1008F100DFFA8078E309F208DFFA807088828C835E
:10090100E309F0A3DFFA806489828A83E0A3F60811
:10091100DFFA805889828A83E0A3F208DFFA804CEB
:1009210080D280FA80C680D4806980F280338010C2
:1009310080A680EA809A80A880DA80E280CA80332B
:1009410089828A83ECFAE493A3C8C582C8CCC583A3
:10095100CCF0A3C8C582C8CCC583CCDFE9DEE78073
:100961000D89828A83E493A3F608DFF9ECFAA9F0F2
:10097100EDFB2289828A83ECFAE0A3C8C582C8CC48
:10098100C583CCF0A3C8C582C8CCC583CCDFEADE61
:10099100E880DB89828A83E493A3F208DFF980CCC3
:1009A10088F0EF60010E4E60C388F0ED2402B404BC
:1009B1000050B9F582EB2402B4040050AF23234563
:0609C1008223900921735E
:1009C700BB010689828A83E0225002E722BBFE022E
:0909D700E32289828A83E4932261
:1009E000BB010CE58229F582E5833AF583E02250CC
:1009F00006E92582F8E622BBFE06E92582F8E22216
:0D0A0000E58229F582E5833AF583E493222F
:00000001FF
