:03000000020C717E
:0C0C7100787FE4F6D8FD75817D020CB898
:10108E000000000000000000000000000000000052
:06109E000000000000004C
:090EA100014F00014C0001490061
:10105A00C2AC438920759850758DFD758BFDC29879
:0A106A00D28ED2AF758780D2AC227F
:03002300020F3198
:100F3100C0E0C0D075D018309833C298E521D39461
:100F41000B40028025743C2521F8A699E53CB402AA
:100F5100190521E521B40B0DD3940D50087521001D
:100F6100752E028008752E018003752100D0D0D026
:020F7100E0326C
:080003008F993099FDC299228A
:060D84008B5B8A5C895DB7
:100D8A00785E7C007D007BFF7A10798E7E007F0B77
:100D9A001209B7E4F569F56AFDFCAB5BAA5CA95DCB
:100DAA008D828C831209F6FF745E2DF8A6070DBD9D
:100DBA0000010CED640B4C70E17B007A0079607DD8
:100DCA0006120DF48E698F6A856A67E569F566E42D
:100DDA00FCFD745E2DF8E6FF1200030DBD00010C48
:090DEA00C3ED940BEC940040E908
:010DF30022DD
:020E4D008F58BC
:100E4F0078597C007D007BFF7A1079997E007F0BAB
:100E5F001209B7E4FFFEFD742F2DF8E6FC74592D2F
:100E6F00F8A6040DBD0BF075598285585C7B007A8E
:100E7F0000795B7D06120DF48F628E61756383E4DA
:100E8F00FD74592DF8E6FF1200030DEDC3940B40CE
:010E9F00F062
:010EA000222F
:100724008208210000000000A6E383820822000161
:10073400010000BCA9838208220001020000D846FF
:10074400838208220002010000718C838208220047
:100754000202000015638382082200030100007175
:100764008C838208220003020000718C8382082299
:100774000003030000718C83820823000000000042
:100784004BF78382082300010000004BF7838208A3
:1007940023000200000086D28382082300030000A5
:1007A400003DCE8382082300040000001C9983824C
:1007B40008230005000000A78583820823000600A3
:1007C40000006AA0838208230007000000D1BC83D4
:1007D4008208230008000000280E838208230009F1
:1007E400000000931283820823000A0000005E3791
:1007F40083820823000B000000E52B83820823007A
:100804000C000000C47C83820823000D000000A3B8
:100814003A83820823000E0000000AF08382082332
:10082400000F000000095983820823001101000011
:10083400A33A8382082300110200000AF08382088D
:1008440023001103000009598382082300120000C9
:10085400000000838208230013000000000083824C
:10086400082300EE000000000083820823000C012E
:100874000000C47C83820823000D010000A33A8396
:10088400820823000D020000C7D583820823000DCF
:10089400030000C7D583820823000E0100006E1FE9
:1008A40083820823000E0200000AF08382082300DA
:1008B4000F010000095983820823000F0200005130
:1008C400288382082300100000000000838208248B
:1008D400000000000021F7838208240000010000CA
:0308E4001F668309
:0D0EAA000B7082082400000000000000838F
:0510E500D290C291222F
:0510EA00C290D291222A
:0910C100D290D2917F6402000E6E
:0910CA00C293C296D295D2942281
:0910D300D293D296C295C2942278
:0910DC00D293D296D295D294224F
:020DF4008D6B05
:100DF600756C84756D0874FFF56EF56FE4FDEDC3D3
:100E0600956B503E1209DD626FE40429F9E43AFA63
:100E1600E4FCE56F5401D39400E49400E56E4012BF
:100E260013FEE56F13FFE56C6EF56EE56D6FF56FFE
:100E36008009C313F56EE56F13F56F0CBC08D30D6F
:060E460080BCAE6EAF6F30
:010E4C002283
:10002600E4F554E54A6003020723E54B24D0700348
:1000360002018424F070030204FE24F0700302031C
:100046003D24F070030202FC24C070030201142454
:10005600F0607324F0700302015C24B060030207B1
:1000660023E552705EE55324EF60221460432402B8
:1000760070517BFF7A077924120D841210E57516EC
:1000860010750E10755200755311757C01E516C377
:10009600940840030207231210EAE51660030207DC
:1000A600231210C175160C75131475520075531270
:1000B600227BFF7A0879C6120D8475520075531398
:1000C6000203E30204F7E5527041E553244F60282A
:1000D600146035240270347BFF7A07795B120D8435
:1000E6001210E57BFF7A08792C120D847516F075CF
:1000F60052007553B102031EE51670051210C18039
:10010600007552007553B222E4F57C0204F7E552FD
:100116007041E553245F6028146035240270347BF7
:10012600FF7A077966120D841210EA7BFF7A087946
:1001360037120D847516F07552007553A102031E11
:10014600E51670051210C180007552007553A22283
:10015600E4F57C0204F7E5527021E5532440701B58
:100166007BFF7A077971120D84757C011210C17BB1
:10017600FF7A087942120D84E4F57C0204F7E55211
:1001860060030202F9E55324D0B4080040030202DA
:10019600F99001A575F003A4C58325F0C583730204
:1001A60001BD0201D50201E602020E02029602021A
:1001B600A60202DB0202EB7BFF7A07792F120D847F
:1001C600750E10E4F517757C01F5527553312275DD
:1001D60013F07511281210DC7BFF7A0779DF807C1B
:1001E600208116E5136012D2007513F075112012E6
:1001F60010E575520075533322E513600302072399
:10020600C200F55275533622E51160383083063048
:100216008103020723308306208103020723E517A3
:10022600D39405400E30810B1210C17552007553E0
:1002360034804B30830302072330810302072312E5
:1002460010C18055E5116003020723C2001210C1D8
:100256003083133081107BFF7A08798F120D8475F5
:100266005200755332223083062081030207232071
:10027600831030810D7552007553341210D37513E7
:1002860028223083030207233081030207238009D3
:100296007BFF7A0779F5120D847552007553352266
:1002A6002081141210DCE4F517F5527553377BFFE5
:1002B6007A08794D020D847BFF7A087979120D84CC
:1002C6007BFF7A087979120D8475520075533712BF
:1002D60010E5C294227BFF7A0779F5120D847552D8
:1002E6000075533722C2007FE87E03121078D2943D
:1002F600E4F57C0204F7E552703AE553249E601C4F
:100306000470317BFF7A077950120D8475131075CE
:100316001208755200755362757C01227F05121012
:10032600A41210C17BFF7A0779F5120D847552006D
:10033600755363220204F7E55260030204F7E5539E
:1003460024B0B4100040030204F790035E75F00376
:10035600A4C58325F0C5837302038E0203AC020392
:10036600C60203E70203F402040402041F02042E79
:1003760002045702046B0204CE0204F70204D702F9
:1003860004F40204F70203977BFF7A07793A120D09
:10039600847512107513101210EAE4F50FF55275F4
:1003A60053517510F022E512600CE50FC3940A5004
:1003B6000302072380031210C1755200755352229F
:1003C600E512D394004007755200755359227BFFFE
:1003D6007A0879B0120D8475520075535AE4F57C8B
:1003E60022E5126003020723F552755354221210B8
:1003F600C1120FED75103C75520075535522E5106C
:10040600600D20810302072375520075535622752D
:100416005200755359751378221210EAE4F50F75D8
:10042600120CF55275535722E512601EE50FC39460
:10043600C85003020723755200755358E512D3942A
:10044600005003020723E4F5122275520075535833
:1004560022E5126003020723F5527553597510A061
:100466007513788021E51270031210C1E50F60073D
:10047600E5106003020723E50F600EE510700AE53C
:100486001360030210EA0210C1E50F7012E5106056
:100496000E1210C17BFF7A0879B0120D848014E524
:1004A6000F7010E510700CF55275535C1210C17583
:1004B600131022300109C20175520075535C227572
:1004C600520075535AE4F57C754A00754B300206A6
:1004D6004EE50FC3946450030207231210C17BFF3D
:1004E6007A0779F5120D8475520075535D22E4F58D
:1004F6007C754A00754B9022E552600302071AE5A7
:100506005324C0B40C00400302071A90051F75F06F
:1005160003A4C58325F0C583730205430205610262
:1005260005FA02065502067002068702069B0206B7
:10053600AF0206E60206FA02070B020717750D1050
:100546007BFF7A077945120D84755200755341E495
:10055600F54C3082FDE4F549C29222E5496003027A
:1005660005F3E50D70030205F3E55145507010F5EE
:100576004FE5176003434F01E50F6003434F02E564
:100586004F606124FE605D14602424027059E550BA
:10059600701AE551146005047012801EE50D60475F
:1005A600E5176003020723754901802C8039E55061
:1005B6007030E551146010047028750D101210E5A6
:1005C60075500075510122E50D6015E517600302AF
:1005D6000723754901754C01F550F551F552801008
:1005E600800580031210E5E4F550F551227552009E
:1005F600755342222083051210E580F87F0A7E009B
:1006060012107812107412107412107412107412E0
:100616001074D2927513101210C17BFF7A08799A62
:10062600120D847BFF7A08799A120D847BFF7A0873
:10063600799A120D84E54CB401087552007553433E
:100646008006754A00754B30755200755330227519
:100656000D141210EA7513087BFF7A0779F5120D4F
:1006660084E4F50FF55275534422E50D600CE50F51
:10067600C3940A5003020723800075520075534540
:1006860022850D0BE50DD394005003020723755206
:100696000075534622E50D60030207231210C112AE
:1006A6000FED75520075534722E50F70701210EA70
:1006B60075130C1210D320840B1210DC7BFF7A0703
:1006C60079F5800DE513700C1210DC7BFF7A087942
:1006D60000120D84E4F50F850B0DF5527553482273
:1006E600E50D6009E50FC3940A403280007552009B
:1006F60075534922E50DD394004003750D027552DA
:100706000075534A22E50D7014F55275534B1210BD
:0D071600C1E4F57C754A00754B9075130821
:0107230022B3
:100BD400E4F555E52E64026003020C5F750AF0F536
:100BE40054743C2554F8E6FF742F2554F8A6077472
:100BF4003C2554F8E4F60554E554B40BE4E4F52E2E
:100C0400E539B40306E53064086005755506803798
:100C140085312285322385332485342585352685FF
:100C24003627C2AF7B007A0079227D06120DF4AD1F
:100C340007AC06AF37EFFEE538FFD2AFED6F7002B9
:100C4400EC6E6003755501E555700BAB34AD33AFF5
:100C540031120A238005AF55120E4DE4F554742F5A
:0C0C64002554F8E4F60554E554B40BF2F6
:010C70002261
:100A23008D568B57EF24DE603D24FE7003020B26A8
:100A330024E47003020B29241F6003020B2C754A64
:100A430000754B10755200755310E4F550F551F5D0
:100A530014F508F515F50FF510F517F516F511F55D
:100A630012F50DF50B22E556B40218E557B402133F
:100A7300308318200015754A00754B607552007558
:100A8300536122E54B6490454A60057F04020B2EB7
:100A9300E556B40112E557B4010D754A00754B30A4
:100AA30075520075533022E556B40112E557B4026E
:100AB3000D754A00754B5075520075535022E5561B
:100AC300B40217E557B40112754A00754B407552CD
:100AD30000755340E4F550F55122E556B40312E591
:100AE30057B4010D754A00754BB07552007553B07C
:100AF30022E556B40312E557B4020D754A00754B4F
:100B0300A07552007553A022E556B40312E557B4FD
:100B1300030D754A00754BC07552007553C0227F93
:0F0B2300038008020F730200207F02120E4D2282
:100F73007BFF7A0879D1120D84AF8053070FC374B6
:100F83000F9FFFAEA05306E0EEFD3395E0FCED644A
:100F9300E04C70147F5012000EAF8053070FC374E0
:100FA3000F9FFFAEA05306E0C374E09EFE4207020C
:020FB300101F0D
:10101F00EF70078F7475750180058F74E4F575F5A2
:10102F0058755900755A70AB58AA59A95A020D84B0
:100B3200EF540FB409004003020BC2900B44F82893
:100B42002873020B5F020B6A020B75020B80020B09
:100B52008B020B96020BA1020BAC020BB77555FF71
:100B620075560775577C80617555FF755607755721
:100B72008780567555FF755607755792804B755588
:100B8200FF75560775579D80407555FF7556077559
:100B920057A880357555FF7556077557B3802A7566
:100BA20055FF7556077557BE801F7555FF75560759
:100BB2007557C980147555FF7556077557D4800946
:100BC2007555FF755608755763AB55AA56A9570256
:020BD2000D8490
:0100200022BD
:100FED00E57B540FFEE4F57BE515C39464400343A4
:100FFD007B01E50FC394644003437B02E517C39463
:10100D00644003437B08E57B540FFF6E6003120BB6
:01101D0032A0
:01101E0022AF
:041074007FC87E00B3
:10107800EF1FAA0670011E4A600B7D6EEDD3940027
:0510880040EE1D80F7A1
:01108D002240
:100EEE0005FF65E5CB06FF8005295514FF8105003A
:100EFE0000000000000000000000000000EE9F094E
:100F0E00FFB023001B01365B07FFB001001C561417
:100F1E00FF81050202000000000000000002010037
:030F2E0000CA0AEC
:060EB700017B00017C003C
:100FB500757C0112103FE4F57CF52ED29CE50A7094
:100FC50018750AF0E517C394FA400ED201754A0068
:100FD500754B5075520075535F120BD4120026E500
:080FE5007C70DA120FED80D5DB
:03000B00020CFDE7
:100CFD00C0E0C0D0758ACC758CF820800BE515D37B
:100D0D0094FA50070515800375150020810BE50F2A
:100D1D00D394FA5007050F8003750F0020830BE560
:100D2D0017D394FA5007051780037517000514E5BE
:100D3D0014C394FA403C750801751400E516600261
:100D4D001516E51160021511E51260021512E50D7B
:100D5D006002150DE50D6002150DE5106002151010
:100D6D00E50E6002150EE51360021513E50A60022B
:070D7D00150AD0D0D0E032CE
:100EBD00011400010800011500010F0001100001CF
:100ECD001700011600011100011200010D00010BA8
:100EDD0000010E00011300010AF0010C00010900D0
:0C10B500758921758ACC758CF8D28C22CC
:10000E00EFD39400400B7E8D7D05DDFEDEFA1F8062
:01001E00EFF2
:01001F0022BE
:1010A400AC07ECD3940040087FC812000E1C80F2F9
:0110B4002219
:10103F00754A00754B90755200755390E4F514F591
:0B104F00081210B512105A75A892226A
:100C7D00020FB5E493A3F8E493A34003F68001F2C9
:100C8D0008DFF48029E493A3F85407240CC8C33378
:100C9D00C4540F4420C8834004F456800146F6DF47
:100CAD00E4800B0102040810204080900EA1E47E28
:100CBD00019360BCA3FF543F30E509541FFEE4933C
:100CCD00A360010ECF54C025E060A840B8E493A303
:100CDD00FAE493A3F8E493A3C8C582C8CAC583CA2E
:100CED00F0A3C8C582C8CAC583CADFE9DEE780BEE6
:010EED000004
:1008E700E709F608DFFA8046E709F208DFFA803EF3
:1008F70088828C83E709F0A3DFFA8032E309F608E0
:10090700DFFA8078E309F208DFFA807088828C8347
:10091700E309F0A3DFFA806489828A83E0A3F608FB
:10092700DFFA805889828A83E0A3F208DFFA804CD5
:1009370080D280FA80C680D4806980F280338010AC
:1009470080A680EA809A80A880DA80E280CA803315
:1009570089828A83ECFAE493A3C8C582C8CCC5838D
:10096700CCF0A3C8C582C8CCC583CCDFE9DEE7805D
:100977000D89828A83E493A3F608DFF9ECFAA9F0DC
:10098700EDFB2289828A83ECFAE0A3C8C582C8CC32
:10099700C583CCF0A3C8C582C8CCC583CCDFEADE4B
:1009A700E880DB89828A83E493A3F208DFF980CCAD
:1009B70088F0EF60010E4E60C388F0ED2402B404A6
:1009C7000050B9F582EB2402B4040050AF2323454D
:0609D70082239009377332
:1009DD00BB010689828A83E0225002E722BBFE0218
:0909ED00E32289828A83E493224B
:1009F600BB010CE58229F582E5833AF583E02250B6
:100A060006E92582F8E622BBFE06E92582F8E222FF
:0D0A1600E58229F582E5833AF583E4932219
:00000001FF
