:03000000020C6A85
:0C0C6A00787FE4F6D8FD75817D020CB1A6
:101087000000000000000000000000000000000059
:0610970000000000000053
:090E9A00014F00014C0001490068
:10105300C2AC438920759850758DFD758BFDC29880
:0A106300D28ED2AF758780D2AC2286
:03002300020F2A9F
:100F2A00C0E0C0D075D018309833C298E521D39468
:100F3A000B40028025743C2521F8A699E53CB402B1
:100F4A00190521E521B40B0DD3940D500875210024
:100F5A00752E028008752E018003752100D0D0D02D
:020F6A00E03273
:080003008F993099FDC299228A
:060D7D008B5B8A5C895DBE
:100D8300785E7C007D007BFF7A1079877E007F0B85
:100D93001209B0E4F569F56AFDFCAB5BAA5CA95DD9
:100DA3008D828C831209EFFF745E2DF8A6070DBDAB
:100DB30000010CED640B4C70E17B007A0079607DDF
:100DC30006120DED8E698F6A856A67E569F566E43B
:100DD300FCFD745E2DF8E6FF1200030DBD00010C4F
:090DE300C3ED940BEC940040E90F
:010DEC0022E4
:020E46008F58C3
:100E480078597C007D007BFF7A1079927E007F0BB9
:100E58001209B0E4FFFEFD742F2DF8E6FC74592D3D
:100E6800F8A6040DBD0BF075598285585C7B007A95
:100E780000795B7D06120DED8F628E61756383E4E8
:100E8800FD74592DF8E6FF1200030DEDC3940B40D5
:010E9800F069
:010E99002236
:10071D008208210000000000A6E383820822000168
:10072D00010000BCA9838208220001020000D84606
:10073D00838208220002010000718C83820822004E
:10074D00020200001563838208220003010000717C
:10075D008C838208220003020000718C83820822A0
:10076D000003030000718C83820823000000000049
:10077D004BF78382082300010000004BF7838208AA
:10078D0023000200000086D28382082300030000AC
:10079D00003DCE8382082300040000001C99838253
:1007AD0008230005000000A78583820823000600AA
:1007BD0000006AA0838208230007000000D1BC83DB
:1007CD008208230008000000280E838208230009F8
:1007DD00000000931283820823000A0000005E3798
:1007ED0083820823000B000000E52B838208230081
:1007FD000C000000C47C83820823000D000000A3C0
:10080D003A83820823000E0000000AF08382082339
:10081D00000F000000095983820823001101000018
:10082D00A33A8382082300110200000AF083820894
:10083D0023001103000009598382082300120000D0
:10084D000000008382082300130000000000838253
:10085D00082300EE000000000083820823000C0135
:10086D000000C47C83820823000D010000A33A839D
:10087D00820823000D020000C7D583820823000DD6
:10088D00030000C7D583820823000E0100006E1FF0
:10089D0083820823000E0200000AF08382082300E1
:1008AD000F010000095983820823000F0200005137
:1008BD002883820823001000000000008382082492
:1008CD00000000000021F7838208240000010000D1
:0308DD001F668310
:0D0EA3000B70820824000000000000008396
:0510DE00D290C2912236
:0510E300C290D2912231
:0910BA00D290D2917F6402000E75
:0910C300C293C296D295D2942288
:0910CC00D293D296C295C294227F
:0910D500D293D296D295D2942256
:020DED008D6B0C
:100DEF00756C84756D0874FFF56EF56FE4FDEDC3DA
:100DFF00956B503E1209D6626FE40429F9E43AFA72
:100E0F00E4FCE56F5401D39400E49400E56E4012C6
:100E1F0013FEE56F13FFE56C6EF56EE56D6FF56F05
:100E2F008009C313F56EE56F13F56F0CBC08D30D76
:060E3F0080BCAE6EAF6F37
:010E4500228A
:10002600E4F554E54A600302071CE54B24D070034F
:1000360002018424F070030204FF24F0700302031B
:100046003E24F070030202FD24C070030201142452
:10005600F0607324F0700302015C24B060030207B1
:100066001CE552705EE55324EF60221460432402BF
:1000760070517BFF7A07791D120D7D1210DE751601
:1000860010750E10755200755311757C01E516C377
:100096009408400302071C1210E3E51660030207EA
:1000A6001C1210BA75160C7513147552007553127E
:1000B600227BFF7A0879BF120D7D755200755313A6
:1000C6000203E40204F8E5527041E553244F602828
:1000D600146035240270347BFF7A077954120D7D43
:1000E6001210DE7BFF7A087925120D7D7516F075E4
:1000F60052007553B102031FE51670051210BA803F
:10010600007552007553B222E4F57C0204F8E552FC
:100116007041E553245F6028146035240270347BF7
:10012600FF7A07795F120D7D1210E37BFF7A08795B
:1001360030120D7D7516F07552007553A102031F1E
:10014600E51670051210BA80007552007553A2228A
:10015600E4F57C0204F8E5527021E5532440701B57
:100166007BFF7A07796A120D7D757C011210BA7BC6
:10017600FF7A08793B120D7DE4F57C0204F8E5521E
:1001860060030202FAE55324D0B4080040030202D9
:10019600FA9001A575F003A4C58325F0C583730203
:1001A60001BD0201D50201E702020F0202AA020204
:1001B600BA0202E50202F57BFF7A077928120D7D65
:1001C600750E10E4F517757C01F5527553312275DD
:1001D60013F07511281210D57BFF7A0779D8020221
:1001E60076208116E5136012D2007513F075112082
:1001F6001210DE75520075533322E51360030207B1
:100206001CC200F55275533622E511604B30830649
:1002160030810302071C30831920811620820EC20A
:1002260092C2947FDC7E05121071D29422D292D2B1
:100236009422E517D39405400E30810B1210BA753F
:100246005200755334804B30830302071C30810300
:1002560002071C1210BA8055E511600302071CC282
:10026600001210BA3083133081107BFF7A08798828
:10027600120D7D755200755332223083062081039C
:1002860002071C20831030810D75520075533412FD
:1002960010CC7513282230830302071C3081030219
:1002A600071C80097BFF7A0779EE120D7D755200D7
:1002B600755335222081141210D5E4F517F55275C1
:1002C60053377BFF7A087946020D7DE4F54C7BFFB8
:1002D6007A087972120D7D7BFF7A08797280067B27
:1002E600FF7A0779EE120D7D75520075533722C2DB
:1002F60000E4F57C0204F8E552703AE553249E606A
:100306001C0470317BFF7A077949120D7D75131035
:10031600751208755200755362757C01227F0512AD
:10032600109D1210BA7BFF7A0779EE120D7D755279
:1003360000755363220204F8E55260030204F8E5EF
:100346005324B0B4100040030204F890035F75F024
:1003560003A4C58325F0C5837302038F0203AD0290
:1003660003C70203E80203F502040502042002049F
:100376002F02045802046C0204CF0204F80204D8C7
:100386000204F50204F80203987BFF7A0779331218
:100396000D7D7512107513101210E3E4F50FF5526A
:1003A6007553517510F022E512600CE50FC3940ADF
:1003B600500302071C80031210BA7552007553527F
:1003C60022E512D394004007755200755359227BDB
:1003D600FF7A0879A9120D7D75520075535AE4F516
:1003E6007C22E512600302071CF552755354221253
:1003F60010BA120FE675103C75520075535522E57A
:1004060010600D20810302071C7552007553562299
:10041600755200755359751378221210E3E4F50FDF
:1004260075120CF55275535722E512601EE50FC37F
:1004360094C8500302071C755200755358E512D331
:100446009400500302071CE4F512227552007553FE
:100456005822E512600302071CF5527553597510B0
:10046600A07513788021E51270031210BAE50F60AB
:1004760007E510600302071CE50F600EE510700A21
:10048600E51360030210E30210BAE50F7012E510DF
:10049600600E1210BA7BFF7A0879A9120D7D8014BE
:1004A600E50F7010E510700CF55275535C1210BA1A
:1004B60075131022300109C20175520075535C2272
:1004C60075520075535AE4F57C754A00754B300237
:1004D6000647E50FC39464500302071C1210BA7B4B
:1004E600FF7A0779EE120D7D75520075535D22E491
:1004F600F57C754A00754B9022E55260030207139E
:10050600E55324C0B40C0040030207139005207580
:10051600F003A4C58325F0C5837302054402055A7A
:100526000205F302064E02066902068002069402DE
:1005360006A80206DF0206F3020704020710750D7D
:10054600107BFF7A07793E120D7D75520075534177
:10055600E4F54922E54960030205ECE50D70030266
:1005660005ECE55145507010F54FE5176003434F14
:1005760001E50F6003434F02E54F606124FE605DB5
:1005860014602424027059E550701AE55114600570
:10059600047012801EE50D6047E517600302071C14
:1005A600754901802C8039E5507030E55114601092
:1005B600047028750D101210DE7550007551012259
:1005C600E50D6015E517600302071C754901754CBA
:1005D60001F550F551F5528010800580031210DEAA
:1005E600E4F550F5512275520075534222208305D9
:1005F6001210DE80F87F0A7E0012107112106D1242
:10060600106D12106D12106D12106DD292751310BE
:100616001210BA7BFF7A087993120D7D7BFF7A0858
:100626007993120D7D7BFF7A087993120D7DE54C47
:10063600B401087552007553438006754A00754B20
:100646003075520075533022750D141210E3751370
:10065600087BFF7A0779EE120D7DE4F50FF55275EA
:10066600534422E50D600CE50FC3940A50030207BC
:100676001C800075520075534522850D0BE50DD380
:100686009400500302071C75520075534622E50D6F
:10069600600302071C1210BA120FE675520075535A
:1006A6004722E50F70701210E375130C1210CC2060
:1006B600840B1210D57BFF7A0779EE800DE5137057
:1006C6000C1210D57BFF7A0779F9120D7DE4F50F30
:1006D600850B0DF55275534822E50D6009E50FC3EC
:1006E600940A4032800075520075534922E50DD3B5
:1006F60094004003750D0275520075534A22E50DAC
:100706007014F55275534B1210BAE4F57C754A0015
:06071600754B90751308FD
:01071C0022BA
:100BCD00E4F555E52E64026003020C58750AF0F544
:100BDD0054743C2554F8E6FF742F2554F8A6077479
:100BED003C2554F8E4F60554E554B40BE4E4F52E35
:100BFD00E539B40306E530640860057555068037A0
:100C0D008531228532238533248534258535268506
:100C1D003627C2AF7B007A0079227D06120DEDAD2D
:100C2D0007AC06AF37EFFEE538FFD2AFED6F7002C0
:100C3D00EC6E6003755501E555700BAB34AD33AFFC
:100C4D0031120A1C8005AF55120E46E4F554742F6F
:0C0C5D002554F8E4F60554E554B40BF2FD
:010C69002268
:100A1C008D568B57EF24DE603D24FE7003020B1FB6
:100A2C0024E47003020B22241F6003020B25754A79
:100A3C0000754B10755200755310E4F550F551F5D7
:100A4C0014F508F515F50FF510F517F516F511F564
:100A5C0012F50DF50B22E556B40218E557B4021346
:100A6C00308318200015754A00754B60755200755F
:100A7C00536122E54B6490454A60057F04020B27C5
:100A8C00E556B40112E557B4010D754A00754B30AB
:100A9C0075520075533022E556B40112E557B40275
:100AAC000D754A00754B5075520075535022E55622
:100ABC00B40217E557B40112754A00754B407552D4
:100ACC0000755340E4F550F55122E556B40312E598
:100ADC0057B4010D754A00754BB07552007553B083
:100AEC0022E556B40312E557B4020D754A00754B56
:100AFC00A07552007553A022E556B40312E557B405
:100B0C00030D754A00754BC07552007553C0227F9A
:0F0B1C00038008020F6C0200207F02120E462297
:100F6C007BFF7A0879CA120D7DAF8053070FC374CB
:100F7C000F9FFFAEA05306E0EEFD3395E0FCED6451
:100F8C00E04C70147F5012000EAF8053070FC374E7
:100F9C000F9FFFAEA05306E0C374E09EFE42070213
:020FAC0010181B
:10101800EF70078F7475750180058F74E4F575F5A9
:1010280058755900755A70AB58AA59A95A020D7DBE
:100B2B00EF540FB409004003020BBB900B3DF828A8
:100B3B002873020B58020B63020B6E020B79020B2C
:100B4B0084020B8F020B9A020BA5020BB07555FF9B
:100B5B0075560775577580617555FF75560775572F
:100B6B008080567555FF75560775578B804B75559D
:100B7B00FF75560775579680407555FF7556077567
:100B8B0057A180357555FF7556077557AC802A757B
:100B9B0055FF7556077557B7801F7555FF75560767
:100BAB007557C280147555FF7556077557CD80095B
:100BBB007555FF75560875575CAB55AA56A9570264
:020BCB000D7D9E
:0100200022BD
:100FE600E57B540FFEE4F57BE515C39464400343AB
:100FF6007B01E50FC394644003437B02E517C3946A
:10100600644003437B08E57B540FFF6E6003120BBD
:011016002BAE
:0110170022B6
:04106D007FC87E00BA
:10107100EF1FAA0670011E4A600B7D6EEDD394002E
:0510810040EE1D80F7A8
:011086002247
:100EE70005FF65E5CB06FF8005295514FF81050041
:100EF70000000000000000000000000000EE9F0955
:100F0700FFB023001B01365B07FFB001001C56141E
:100F1700FF8105020200000000000000000201003E
:030F270000CA0AF3
:060EB000017B00017C0043
:100FAE00757C01121038E4F57CF52ED29CE50A70A2
:100FBE0018750AF0E517C394FA400ED201754A006F
:100FCE00754B5075520075535F120BCD120026E50E
:080FDE007C70DA120FE680D5E9
:03000B00020CF6EE
:100CF600C0E0C0D0758ACC758CF820800BE515D382
:100D060094FA50070515800375150020810BE50F31
:100D1600D394FA5007050F8003750F0020830BE567
:100D260017D394FA5007051780037517000514E5C5
:100D360014C394FA403C750801751400E516600268
:100D46001516E51160021511E51260021512E50D82
:100D56006002150DE50D6002150DE5106002151017
:100D6600E50E6002150EE51360021513E50A600232
:070D7600150AD0D0D0E032D5
:100EB600011400010800011500010F0001100001D6
:100EC6001700011600011100011200010D00010BAF
:100ED60000010E00011300010AF0010C00010900D7
:0C10AE00758921758ACC758CF8D28C22D3
:10000E00EFD39400400B7E8D7D05DDFEDEFA1F8062
:01001E00EFF2
:01001F0022BE
:10109D00AC07ECD3940040087FC812000E1C80F200
:0110AD002220
:10103800754A00754B90755200755390E4F514F598
:0B104800081210AE12105375A892227F
:100C7600020FAEE493A3F8E493A34003F68001F2D7
:100C860008DFF48029E493A3F85407240CC8C3337F
:100C9600C4540F4420C8834004F456800146F6DF4E
:100CA600E4800B0102040810204080900E9AE47E36
:100CB600019360BCA3FF543F30E509541FFEE49343
:100CC600A360010ECF54C025E060A840B8E493A30A
:100CD600FAE493A3F8E493A3C8C582C8CAC583CA35
:100CE600F0A3C8C582C8CAC583CADFE9DEE780BEED
:010EE600000B
:1008E000E709F608DFFA8046E709F208DFFA803EFA
:1008F00088828C83E709F0A3DFFA8032E309F608E7
:10090000DFFA8078E309F208DFFA807088828C834E
:10091000E309F0A3DFFA806489828A83E0A3F60802
:10092000DFFA805889828A83E0A3F208DFFA804CDC
:1009300080D280FA80C680D4806980F280338010B3
:1009400080A680EA809A80A880DA80E280CA80331C
:1009500089828A83ECFAE493A3C8C582C8CCC58394
:10096000CCF0A3C8C582C8CCC583CCDFE9DEE78064
:100970000D89828A83E493A3F608DFF9ECFAA9F0E3
:10098000EDFB2289828A83ECFAE0A3C8C582C8CC39
:10099000C583CCF0A3C8C582C8CCC583CCDFEADE52
:1009A000E880DB89828A83E493A3F208DFF980CCB4
:1009B00088F0EF60010E4E60C388F0ED2402B404AD
:1009C0000050B9F582EB2402B4040050AF23234554
:0609D00082239009307340
:1009D600BB010689828A83E0225002E722BBFE021F
:0909E600E32289828A83E4932252
:1009EF00BB010CE58229F582E5833AF583E02250BD
:1009FF0006E92582F8E622BBFE06E92582F8E22207
:0D0A0F00E58229F582E5833AF583E4932220
:00000001FF
