:03000000020C519E
:0C0C5100787FE4F6D8FD75817D020C98D8
:10106E000000000000000000000000000000000072
:06107E000000000000006C
:090E8100014F00014C0001490081
:10103A00C2AC438920759850758DFD758BFDC29899
:0A104A00D28ED2AF758780D2AC229F
:03002300020F11B8
:100F1100C0E0C0D075D018309833C298E521D39481
:100F21000B40028025743C2521F8A699E53CB402CA
:100F3100190521E521B40B0DD3940D50087521003D
:100F4100752E028008752E018003752100D0D0D046
:020F5100E0328C
:080003008F993099FDC299228A
:060D64008B5B8A5C895DD7
:100D6A00785E7C007D007BFF7A10796E7E007F0BB7
:100D7A00120997E4F569F56AFDFCAB5BAA5CA95D0B
:100D8A008D828C831209D6FF745E2DF8A6070DBDDD
:100D9A0000010CED640B4C70E17B007A0079607DF8
:100DAA0006120DD48E698F6A856A67E569F566E46D
:100DBA00FCFD745E2DF8E6FF1200030DBD00010C68
:090DCA00C3ED940BEC940040E928
:010DD30022FD
:020E2D008F58DC
:100E2F0078597C007D007BFF7A1079797E007F0BEB
:100E3F00120997E4FFFEFD742F2DF8E6FC74592D6F
:100E4F00F8A6040DBD0BF075598285585C7B007AAE
:100E5F0000795B7D06120DD48F628E61756383E41A
:100E6F00FD74592DF8E6FF1200030DEDC3940B40EE
:010E7F00F082
:010E8000224F
:100704008208210000000000A6E383820822000181
:10071400010000BCA9838208220001020000D8461F
:10072400838208220002010000718C838208220067
:100734000202000015638382082200030100007195
:100744008C838208220003020000718C83820822B9
:100754000003030000718C83820823000000000062
:100764004BF78382082300010000004BF7838208C3
:1007740023000200000086D28382082300030000C5
:10078400003DCE8382082300040000001C9983826C
:1007940008230005000000A78583820823000600C3
:1007A40000006AA0838208230007000000D1BC83F4
:1007B4008208230008000000280E83820823000911
:1007C400000000931283820823000A0000005E37B1
:1007D40083820823000B000000E52B83820823009A
:1007E4000C000000C47C83820823000D000000A3D9
:1007F4003A83820823000E0000000AF08382082353
:10080400000F000000095983820823001101000031
:10081400A33A8382082300110200000AF0838208AD
:1008240023001103000009598382082300120000E9
:10083400000000838208230013000000000083826C
:10084400082300EE000000000083820823000C014E
:100854000000C47C83820823000D010000A33A83B6
:10086400820823000D020000C7D583820823000DEF
:10087400030000C7D583820823000E0100006E1F09
:1008840083820823000E0200000AF08382082300FA
:100894000F010000095983820823000F0200005150
:1008A40028838208230010000000000083820824AB
:1008B400000000000021F7838208240000010000EA
:0308C4001F668329
:0D0E8A000B708208240000000000000083AF
:0510C500D290C291224F
:0510CA00C290D291224A
:0910A100D290D2917F6402000E8E
:0910AA00C293C296D295D29422A1
:0910B300D293D296C295C2942298
:0910BC00D293D296D295D294226F
:020DD4008D6B25
:100DD600756C84756D0874FFF56EF56FE4FDEDC3F3
:100DE600956B503E1209BD626FE40429F9E43AFAA4
:100DF600E4FCE56F5401D39400E49400E56E4012E0
:100E060013FEE56F13FFE56C6EF56EE56D6FF56F1E
:100E16008009C313F56EE56F13F56F0CBC08D30D8F
:060E260080BCAE6EAF6F50
:010E2C0022A3
:10002600E4F554E54A6003020703E54B24D0700368
:1000360002018424F070030204E024F0700302033A
:100046002124F070030202E024C07003020114248C
:10005600F0607324F0700302015C24B060030207B1
:1000660003E552705EE55324EF60221460432402D8
:1000760070517BFF7A077904120D641210C575164C
:1000860010750E10755200755311757C01E516C377
:10009600940840030207031210CAE516600302071C
:1000A600031210A175160C751314755200755312B0
:1000B600227BFF7A0879A6120D64755200755313D8
:1000C6000203C70204D9E5527041E553244F602864
:1000D600146035240270347BFF7A07793B120D6475
:1000E6001210C57BFF7A08790C120D647516F0752F
:1000F60052007553B1020302E51670051210A18075
:10010600007552007553B222E4F57C0204D9E5521B
:100116007041E553245F6028146035240270347BF7
:10012600FF7A077946120D641210CA7BFF7A0879A6
:1001360017120D647516F07552007553A10203026D
:10014600E51670051210A180007552007553A222A3
:10015600E4F57C0204D9E5527021E5532440701B76
:100166007BFF7A077951120D64757C011210A17B11
:10017600FF7A087922120D64E4F57C0204D9E5526F
:1001860060030202DDE55324D0B4080040030202F6
:10019600DD9001A575F003A4C58325F0C583730220
:1001A60001BD0201D50201E602020E020290020220
:1001B600A00202C80202D87BFF7A07790F120D64EB
:1001C600750E10E4F517757C01F5527553312275DD
:1001D60013F07511281210BC7BFF7A0779BF80785F
:1001E600208116E5136012D2007513F075112012E6
:1001F60010C575520075533322E5136003020703D9
:10020600C200F55275533622E5116034308304304E
:1002160081012230830420810122E517D394054011
:100226000E30810B1210A17552007553348049307F
:1002360083030207033081030207031210A18053D0
:10024600E5116003020703C2001210A130831330C8
:1002560081107BFF7A08796F120D64755200755311
:1002660032223083042081012220831030810D75D3
:1002760052007553341210B37513282230830302CB
:10028600070330810302070380097BFF7A0779D5CC
:10029600120D64755200755335222081141210BC5C
:1002A600E4F517F5527553377BFF7A08792D020D61
:1002B600647BFF7A087959120D647BFF7A087959B5
:1002C60080067BFF7A0779D5120D64755200755347
:1002D6003722C200E4F57C0204D9E552703AE553B0
:1002E600249E601C0470317BFF7A077930120D64FE
:1002F600751310751208755200755362757C0122CC
:100306007F051210841210A17BFF7A0779D5120D92
:1003160064755200755363220204D9E552600302E4
:1003260004D9E55324B0B4100040030204D9900365
:100336004275F003A4C58325F0C5837302037202D8
:1003460003900203AA0203CB0203D80203E80204C5
:100356000302041202043B02044F0204B00204D951
:100366000204B90204D60204D902037B7BFF7A0792
:10037600791A120D647512107513101210CAE4F56D
:100386000FF5527553517510F022E512600CE50F0A
:10039600C3940A500302070380031210A17552008A
:1003A60075535222E512D3940040077552007553D7
:1003B60059227BFF7A087990120D647552007553A5
:1003C6005AE4F57C22E5126003020703F5527553E1
:1003D60054221210A1120FCD75103C7552007553A0
:1003E6005522E510600D2081030207037552007542
:1003F600535622755200755359751378221210CA36
:10040600E4F50F75120CF55275535722E512601E6E
:10041600E50FC394C850030207037552007553587D
:10042600E512D394005003020703E4F51222755235
:100436000075535822E5126003020703F5527553FF
:10044600597510A0751378801FE51270031210A15C
:10045600E50F6005E510600122E50F600EE51070FE
:100466000AE51360030210CA0210A1E50F7012E537
:1004760010600E1210A17BFF7A087990120D64802D
:1004860014E50F7010E510700CF55275535C1210E0
:10049600A175131022300109C20175520075535C13
:1004A6002275520075535AE4F57C754A00754B3037
:1004B60002062CE50FC3946450030207031210A131
:1004C6007BFF7A0779D5120D6475520075535D224C
:1004D600E4F57C754A00754B9022E55260030206EE
:1004E600FAE55324C0B40C0040030206FA90050155
:1004F60075F003A4C58325F0C5837302052502059F
:100506003F0205D802063302064E02066502067948
:1005160002068D0206C40206D80206E90206F7752F
:100526000D107BFF7A077925120D647552007553FD
:1005360041E4F54CF549C29222E54960030205D132
:10054600E50D70030205D1E55145507010F54FE5F4
:10055600176003434F01E50F6003434F02E54F6009
:100566006124FE605D14602424027059E550701AFF
:10057600E551146005047012801EE50D6047E5170D
:100586006003020703754901802C8039E5507030FD
:10059600E551146010047028750D101210C57550C1
:1005A6000075510122E50D6015E51760030207038A
:1005B600754901754C01F550F551F55280108005CD
:1005C60080031210C5E4F550F5512275520075539B
:1005D60042222083051210C580F87F0A7E00121081
:1005E600581210541210541210541210541210545F
:1005F600D2927513101210A17BFF7A08797A120D28
:10060600647BFF7A08797A120D647BFF7A08797A1F
:10061600120D64E54CB4010875520075534380060B
:10062600754A00754B3075520075533022750D149E
:100636001210CA7513087BFF7A0779D5120D64E488
:10064600F50FF55275534422E50D600CE50FC39482
:100656000A50030207038000755200755345228530
:100666000D0BE50DD3940050030207037552007578
:10067600534622E50D60030207031210A1120FCDA7
:1006860075520075534722E50F70721210CA751322
:100696000C1210B320840B1210BC7BFF7A0779D59D
:1006A600800DE513700C1210BC7BFF7A0779E012FF
:1006B6000D64E4F50F850B0DF55275534822E50DD3
:1006C6006009E50FC3940A403480007552007553E3
:1006D6004922E50DD394004003750D02755200754D
:1006E600534A22E50D60012275520075534B1210D4
:0D06F600A1E4F57C754A00754B9075130862
:0107030022D3
:100BB400E4F555E52E64026003020C3F750AF0F576
:100BC40054743C2554F8E6FF742F2554F8A6077492
:100BD4003C2554F8E4F60554E554B40BE4E4F52E4E
:100BE400E539B40306E530640860057555068037B9
:100BF4008531228532238533248534258535268520
:100C04003627C2AF7B007A0079227D06120DD4AD5F
:100C140007AC06AF37EFFEE538FFD2AFED6F7002D9
:100C2400EC6E6003755501E555700BAB34AD33AF15
:100C340031120A038005AF55120E2DE4F554742FBA
:0C0C44002554F8E4F60554E554B40BF216
:010C50002281
:100A03008D568B57EF24DE603D24FE7003020B06E8
:100A130024E47003020B09241F6003020B0C754AC4
:100A230000754B10755200755310E4F550F551F5F0
:100A330014F508F515F50FF510F517F516F511F57D
:100A430012F50DF50B22E556B40218E557B402135F
:100A5300308318200015754A00754B607552007578
:100A6300536122E54B6490454A60057F04020B0EF7
:100A7300E556B40112E557B4010D754A00754B30C4
:100A830075520075533022E556B40112E557B4028E
:100A93000D754A00754B5075520075535022E5563B
:100AA300B40217E557B40112754A00754B407552ED
:100AB30000755340E4F550F55122E556B40312E5B1
:100AC30057B4010D754A00754BB07552007553B09C
:100AD30022E556B40312E557B4020D754A00754B6F
:100AE300A07552007553A022E556B40312E557B41E
:100AF300030D754A00754BC07552007553C0227FB4
:0F0B0300038008020F530200207F02120E2D22E2
:100F53007BFF7A0879B1120D64AF8053070FC37416
:100F63000F9FFFAEA05306E0EEFD3395E0FCED646A
:100F7300E04C70147F5012000EAF8053070FC37400
:100F83000F9FFFAEA05306E0C374E09EFE4207022C
:020F93000FFF4E
:100FFF00EF70078F7475750180058F74E4F575F5C3
:10100F0058755900755A70AB58AA59A95A020D64F0
:100B1200EF540FB409004003020BA2900B24F828F3
:100B22002873020B3F020B4A020B55020B60020BA9
:100B32006B020B76020B81020B8C020B977555FF31
:100B420075560775575C80617555FF755607755761
:100B52006780567555FF755607755772804B7555E8
:100B6200FF75560775577D80407555FF7556077599
:100B7200578880357555FF755607755793802A75C6
:100B820055FF75560775579E801F7555FF75560799
:100B92007557A980147555FF7556077557B48009A6
:100BA2007555FF755608755743AB55AA56A9570296
:020BB2000D64D0
:0100200022BD
:100FCD00E57B540FFEE4F57BE515C39464400343C4
:100FDD007B01E50FC394644003437B02E517C39483
:100FED00644003437B08E57B540FFF6E6003120BD7
:010FFD0012E1
:010FFE0022D0
:041054007FC87E00D3
:10105800EF1FAA0670011E4A600B7D6EEDD3940047
:0510680040EE1D80F7C1
:01106D002260
:100ECE0005FF65E5CB06FF8005295514FF8105005A
:100EDE0000000000000000000000000000EE9F096E
:100EEE00FFB023001B01365B07FFB001001C561438
:100EFE00FF81050202000000000000000002010058
:030F0E0000CA0A0C
:060E9700017B00017C005C
:100F9500757C0112101FE4F57CF52ED29CE50A70D4
:100FA50018750AF0E517C394FA400ED201754A0088
:100FB500754B5075520075535F120BB4120026E540
:080FC5007C70DA120FCD80D51B
:03000B00020CDD07
:100CDD00C0E0C0D0758ACC758CF820800BE515D39B
:100CED0094FA50070515800375150020810BE50F4B
:100CFD00D394FA5007050F8003750F0020830BE581
:100D0D0017D394FA5007051780037517000514E5DE
:100D1D0014C394FA403C750801751400E516600281
:100D2D001516E51160021511E51260021512E50D9B
:100D3D006002150DE50D6002150DE5106002151030
:100D4D00E50E6002150EE51360021513E50A60024B
:070D5D00150AD0D0D0E032EE
:100E9D00011400010800011500010F0001100001EF
:100EAD001700011600011100011200010D00010BC8
:100EBD0000010E00011300010AF0010C00010900F0
:0C109500758921758ACC758CF8D28C22EC
:10000E00EFD39400400B7E8D7D05DDFEDEFA1F8062
:01001E00EFF2
:01001F0022BE
:10108400AC07ECD3940040087FC812000E1C80F219
:011094002239
:10101F00754A00754B90755200755390E4F514F5B1
:0B102F000812109512103A75A89222CA
:100C5D00020F95E493A3F8E493A34003F68001F209
:100C6D0008DFF48029E493A3F85407240CC8C33398
:100C7D00C4540F4420C8834004F456800146F6DF67
:100C8D00E4800B0102040810204080900E81E47E68
:100C9D00019360BCA3FF543F30E509541FFEE4935C
:100CAD00A360010ECF54C025E060A840B8E493A323
:100CBD00FAE493A3F8E493A3C8C582C8CAC583CA4E
:100CCD00F0A3C8C582C8CAC583CADFE9DEE780BE06
:010ECD000024
:1008C700E709F608DFFA8046E709F208DFFA803E13
:1008D70088828C83E709F0A3DFFA8032E309F60800
:1008E700DFFA8078E309F208DFFA807088828C8368
:1008F700E309F0A3DFFA806489828A83E0A3F6081C
:10090700DFFA805889828A83E0A3F208DFFA804CF5
:1009170080D280FA80C680D4806980F280338010CC
:1009270080A680EA809A80A880DA80E280CA803335
:1009370089828A83ECFAE493A3C8C582C8CCC583AD
:10094700CCF0A3C8C582C8CCC583CCDFE9DEE7807D
:100957000D89828A83E493A3F608DFF9ECFAA9F0FC
:10096700EDFB2289828A83ECFAE0A3C8C582C8CC52
:10097700C583CCF0A3C8C582C8CCC583CCDFEADE6B
:10098700E880DB89828A83E493A3F208DFF980CCCD
:1009970088F0EF60010E4E60C388F0ED2402B404C6
:1009A7000050B9F582EB2402B4040050AF2323456D
:0609B70082239009177372
:1009BD00BB010689828A83E0225002E722BBFE0238
:0909CD00E32289828A83E493226B
:1009D600BB010CE58229F582E5833AF583E02250D6
:1009E60006E92582F8E622BBFE06E92582F8E22220
:0D09F600E58229F582E5833AF583E493223A
:00000001FF
