:020000040800F2
:10000000D00A00200D0D0008290800082B08000860
:100010002F08000833080008370800080000000017
:100020000000000000000000000000003B08000885
:100030003D080008000000003F08000841080008D3
:10004000270D0008270D0008270D0008270D0008C0
:10005000270D0008270D0008270D0008270D0008B0
:10006000270D0008270D0008270D0008270D0008A0
:10007000270D0008270D0008270D0008270D000890
:10008000270D0008270D0008270D0008270D000880
:10009000270D0008270D0008270D0008270D000870
:1000A000270D0008270D0008270D0008270D000860
:1000B000270D0008270D0008270D0008270D000850
:1000C000270D0008270D0008270D0008270D000840
:1000D000270D00080D0C0008270D0008270D00084B
:1000E000270D0008270D0008270D0008270D000820
:1000F000270D0008270D0008270D0008270D000810
:10010000270D0008270D0008270D0008270D0008FF
:10011000270D0008270D0008270D0008270D0008EF
:10012000270D0008270D0008270D0008270D0008DF
:1001300000F002F800F05AF80AA090E8000C82449F
:100140008344AAF10107DA4501D100F04FF8AFF27C
:10015000090EBAE80F0013F0010F18BFFB1A43F0A5
:1001600001031847B0190000D01900000A444FF0ED
:10017000000C10F8013B13F0070408BF10F8014B06
:100180001D1108BF10F8015B641E05D010F8016B4B
:10019000641E01F8016BF9D113F0080F1EBF10F8AF
:1001A000014BAD1C0C1B09D16D1E58BF01F801CBD2
:1001B000FAD505E014F8016B01F8016B6D1EF9D555
:1001C0009142D6D37047000000230024002500266A
:1001D000103A28BF78C1FBD8520728BF30C148BFAA
:1001E0000B6070471FB51FBD10B510BD01F063FC5B
:1001F0001146FFF7F7FF00F0D4F901F081FC03B4DA
:10020000FFF7F2FF03BC00F09FFC000070B504464E
:100210000D4600260DE000BF8021FE4801F02CFBBA
:100220000028F9D02178FB4801F0B8FA641C701C52
:10023000C6B2AE42EFDB70BD70B576E06421F64821
:1002400001F0BAFBF549F6480068801C095CF34AE6
:10025000F3480068C01C105C01EB0020001DF14950
:1002600008601046EE4A12688118EE480268EE48AF
:1002700001F05DFBEC488078132820D1EA48C07873
:10028000E8B9E94800790D2819D1E74840791828DC
:1002900015D1E548807990B9FA20E3490872002029
:1002A00048720875002408E0DF48007DDE49095DDA
:1002B0000844DD490875601CC4B2142CF4DBD9482D
:1002C0000178D948FFF7A2FFD7484079022803D127
:1002D000D548807950281CD0002600250CE001204C
:1002E00000F000FCD1480078012804D1012600204C
:1002F000CE49087003E06D1CB5F5FA6FEFD300BF6F
:100300003EB94021CA4800F09AFE8021C84800F05A
:1003100098FEC3480068C34909680844C04908609A
:10032000BE480968405C00B900E087E700BF70BDC7
:1003300010B56421B84801F03FFB0C21BDA0FFF7C8
:1003400065FF10BD10B56421B34801F035FB0A21EB
:10035000BCA0FFF75BFF002400BF0CE0012000F011
:10036000C1FBB2480078012804D101240020AF4924
:10037000087003E0641CB4F5FA6FEFD300BF3CB91A
:100380004021AB4800F05BFE8021A94800F059FEF7
:1003900010BD10B50020AE49087040E0A3480078B9
:1003A000012834D1AB48007888BB9B4840780528A9
:1003B0002AD19948807E6A2826D19748C07E69282C
:1003C00022D10020A349087000241BE0A248015D4F
:1003D000914A04F10D00105C814211D09E4802F157
:1003E0000D010A6802604A684260896881600120E4
:1003F000984908708848407B00F01F0097490870B2
:10040000601CC4B20C2CE1DB002088490870052078
:1004100000F068FB8E480078401C8D4908708C48BD
:1004200000786428BADB10BD10B50221804800F0C6
:1004300006FE0A2000F056FB04217D4800F001FE74
:1004400010BD10B502217A4800F0FBFD0A2000F033
:1004500049FB0421764800F0F2FD10BD10B50221E1
:10046000734800F0ECFD0421714800F0E8FD10BD78
:1004700010B508216E4800F0E4FDFFF7E2FF00BF71
:100480000421774800F0C1FD0028F9D100BF042104
:10049000734800F0BAFD0028F9D00821644800F044
:1004A000CEFD502000F01EFBFFF7BEFF10BD10B5C3
:1004B00008215F4800F0C5FDFFF7B6FF00BF04212B
:1004C000674800F0A2FD0028F9D100BF042164486C
:1004D00000F09BFD0028F9D00821554800F0AFFD41
:1004E000502000F0FFFAFFF7ACFF10BD10B500245C
:1004F00001214F4800F0A3FD02214D4800F09FFD6F
:1005000004214B4800F09BFD0821494800F097FD6D
:100510001021474800F093FD2021454800F08FFD51
:100520004021434800F08BFD8021414800F087FDC9
:10053000C82000F0D7FAC82000F0D4FAC82000F094
:10054000D1FAC82000F0CEFAC82000F0CBFAC820BB
:1005500000F0C8FAC82000F0C5FAC82000F0C2FABE
:10056000C82000F0BFFAC82000F0BCFA01213048D2
:1005700000F067FDC82000F0B5FA00BF1021384830
:1005800000F043FD0028F9D00121294800F057FD73
:10059000C82000F0A7FAFFF754FFC82000F0A2FA25
:1005A00010BD00F063FA00F0C9FA4FF4E13000F03A
:1005B000DEFA00F035FAFFF799FFFFF73DFE19E18B
:1005C0000121274800F021FD60B90020254908706D
:1005D00025490870254908702549087010211448DC
:1005E00000F02DFD02211E4800F00FFD00287BD1F8
:1005F00010210F4800F025FD00201A4908701A4903
:1006000008701A4908701A490870FFF791FE002017
:10061000184931E0003801400C02002000000020A1
:10062000B8010020BC01002070020020B7010020AA
:10063000001001405A5508000D11000001D66A69EA
:10064000000000005A5506000D0300C56A6900004D
:10065000C8010020C901002064040020C10100205D
:10066000000C0140C6010020C3010020C40100208D
:10067000C5010020C001002008705F4908705F4973
:1006800008705F480021016041608160642552E08C
:100690006D1E5C48007801284AD15B4840780528E7
:1006A00043D15948007F6A2803D05748407F6A28C1
:1006B0003BD15348007810BB51484078F8B95048B6
:1006C00051490D310A6802604A6842608968816058
:1006D0004D48407BC22808D14B48C07D4B4908702B
:1006E00001204549087020E02AE04748407B00F09F
:1006F0001F004649087001203F49087015E000209E
:100700004349087000240DE03D48015D3E4A04F174
:100710000D00105C814203D000203749087003E0CF
:10072000601CC4B20C2CEFDB00BF00203549087000
:100730000A2000F0D7F91DB12F4800780028A7D073
:100740002D480078012827D10A2000F0CBF900209D
:1007500030490870304908703049087030490870D5
:1007600025490870294800780D2806D120212D48F8
:1007700000F065FCFFF77CFE0EE0244800780E28B0
:1007800006D12021274800F05AFCFFF790FE03E035
:100790002021244800F055FC0A2000F0A3F91D4850
:1007A000007838BB1C480078401CC0B21A49087059
:1007B00064281FDB0020087018480078401CC0B275
:1007C000164908703C2815DB002008701448007892
:1007D000401CC0B21249087001280BDB00200E49F2
:1007E00008700E4908700E49087001200949087008
:1007F000FFF7A8FDE4E60000C2010020C7010020C9
:1008000064040020B70100200C020020C001002079
:10081000C9010020C6010020C3010020C40100203E
:10082000C501002000100140704700BFFEE700BF77
:10083000FEE700BFFEE700BFFEE770477047704766
:10084000704700000CB50020019000906B480068D4
:1008500040F480306949086000BF6848006800F4CF
:10086000003000900198401C0190009818B9019840
:10087000B0F5A06FF1D16148006810F4003F02D0DC
:100880000120009001E0002000900098012842D152
:100890005B48006840F0100059490860084600684D
:1008A00020F0030008600846006840F0020008607D
:1008B00052484068514948600846406848600846C8
:1008C000406840F4806048600846406820F47C102E
:1008D00048600846406840F4E810486008460068F0
:1008E00040F08070086000BF4448006810F0007F4E
:1008F000FAD04248406820F003004049486008466A
:10090000406840F00200486000BF3C48406800F08A
:100910000C000828F9D10CBD10B5FFF793FF10BDEE
:1009200010B53648006840F00100344908600846B8
:1009300040683449084031494860084600683249F7
:1009400008402E4908600846006820F480200860AE
:100950000846406820F4FE0048604FF41F0088609D
:10096000FFF7DAFF4FF000602849086010BD10B5AE
:10097000002100200022214B5B6803F00C0121B113
:10098000042906D0082928D107E0214B214C2360F7
:1009900027E01F4B1F4C236023E0184B5B6803F4D8
:1009A0007010164B5B6803F48032022303EB904017
:1009B00022B9194B4343174C23600DE00F4B5B6882
:1009C00013F4003F04D0144B4343124C236003E064
:1009D0000F4B43430F4C236003E00D4B0D4C236042
:1009E00000BF00BF054B5B68C3F303130B4CE15C16
:1009F000084B1B68CB40074C236010BD0010024021
:100A0000002002400000FFF8FFFFF6FE08ED00E0C6
:100A100000127A00CC01002000093D00D001002026
:100A200008B501215C2000F015FD40F2FF30ADF863
:100A3000000010208DF8030003208DF802006946A5
:100A4000084800F051FA3720ADF8000004208DF876
:100A5000030003208DF802006946034800F044FAC1
:100A600008BD000000100140000C014010B56FF0FF
:100A7000040000F0BBF92D4800682D49B0FBF1F0EF
:100A80002C4908700846007800EB4001C1EBC0100B
:100A90004FF6FF7101EAC0002749088010BD0146EA
:100AA000244A12784A434FF0E0235A6100229A61A7
:100AB0001A46126942F001021A6100BF4FF0E022AB
:100AC000106910F0010F02D010F4803FF6D04FF003
:100AD000E022126922F001024FF0E0231A610022A5
:100AE0009A6170470146144A12884A434FF0E02346
:100AF0005A6100229A611A46126942F001021A6193
:100B000000BF4FF0E022106910F0010F02D010F486
:100B1000803FF6D04FF0E022126922F001024FF040
:100B2000E0231A6100229A6170470000CC01002086
:100B300000127A00E0010020E201002010B54FF41D
:100B4000A06000F003F910BD014600BF704770B50A
:100B500004460D4600BF4021634800F08DFE00288A
:100B6000F9D0E1B2604800F019FE204670BD10B522
:100B700086B00446012144F2040000F06BFC5A48A0
:100B800000F0D0FC4FF40070ADF8140003208DF895
:100B9000160018208DF8170005A9544800F0A4F994
:100BA0004FF48060ADF8140004208DF8170005A9FB
:100BB0004E4800F099F901940020ADF80800ADF816
:100BC0000A00ADF80C00ADF810000C20ADF80E00D6
:100BD00001A9454800F0E9FC25208DF8000003201C
:100BE0008DF801008DF8020001208DF803006846A1
:100BF00000F0B1F8012240F225513B4800F06DFDB4
:100C00000121394800F05DFD06B010BD10B540F27D
:100C10002551354800F046FE002864D040F22551A9
:100C2000314800F069FE304800F0BCFD30490870E2
:100C30003048007858B9084600785A2803D1012076
:100C40002C4908704FE000202A4908704BE02948E1
:100C5000007801280BD126480078552803D10220BE
:100C6000244908703FE00020224908703BE02148F9
:100C70000078022807D11E4800781F490870032019
:100C80001C4908702FE01B480078032811D1184830
:100C900000781949487008460078497800EB01202F
:100CA00016490860002016490860042011490870A0
:100CB00019E010480078042815D10D480178104833
:100CC00002680068401C0E4B18600E48815418469C
:100CD00000680A490968884205D300200549087060
:100CE00001200949087010BD00380140000801408A
:100CF000E6010020E7010020E8010020F0010020CB
:100D0000EC0100200C020020B701002009488047B8
:100D100009480047FEE7FEE7FEE7FEE7FEE7FEE7DD
:100D2000FEE7FEE7FEE7FEE704480549054A064BF5
:100D3000704700002109000831010008D00400209C
:100D4000D00A0020D0060020D006002031490143FF
:100D5000314A1160704770B5002100230F22C4781A
:100D60000CB32D4C246804F4E064C4F5E064210A5B
:100D7000C1F10403CA40447804FA03F184781440B2
:100D800021430901254C0678A155047804F01F057C
:100D90000124AC4005786D114FF0E02606EB850587
:100DA000C5F8004109E0047804F01F050124AC40B7
:100DB0001B4D0678761145F8264070BD194A0A4049
:100DC0000243154B1B1F1A60704739B1124A121D9E
:100DD00012680243104B1B1D1A6006E00E4A121DDA
:100DE000126882430C4B1B1D1A607047042808D1FF
:100DF0004FF0E021096941F004014FF0E022116158
:100E000007E04FF0E021096921F004014FF0E022F2
:100E1000116170470000FA050CED00E000E400E00D
:100E200080E100E080FFFF1F10B50446CA488442FD
:100E300008D10121042000F027FB0021042000F04C
:100E400023FB46E0C548844208D10121082000F078
:100E50001BFB0021082000F017FB3AE0C048844249
:100E600008D10121102000F00FFB0021102000F01C
:100E70000BFB2EE0BB48844208D10121202000F06A
:100E800003FB0021202000F0FFFA22E0B648844254
:100E900008D10121402000F0F7FA0021402000F0A5
:100EA000F3FA16E0B148844208D10121802000F015
:100EB000EBFA0021802000F0E7FA0AE0AC48844217
:100EC00007D10121801500F0DFFA0021A01500F004
:100ED000DBFA10BD10B50121084600F0D5FA00215B
:100EE000012000F0D1FA10BD2DE9F04102460025A5
:100EF0000026002000230024002791F803C00CF0F6
:100F00000F0591F803C01CF0100F03D091F802C038
:100F10004CEA050591F800C0BCF1000F31D014680F
:100F200000202BE04FF0010C0CFA00F3B1F800C0E8
:100F30000CEA03069E4220D183004FF00F0C0CFAFE
:100F400003F7BC4305FA03FC4CEA040491F803C020
:100F5000BCF1280F06D14FF0010C0CFA00FCC2F8CE
:100F600014C00AE091F803C0BCF1480F05D14FF05E
:100F7000010C0CFA00FCC2F810C0401C0828D1D3A8
:100F80001460B1F800C0BCF1FF0F34DD54680020DC
:100F90002EE000F1080C4FF0010808FA0CF3B1F84C
:100FA00000C00CEA03069E4221D183004FF00F0CD3
:100FB0000CFA03F7BC4305FA03FC4CEA040491F86D
:100FC00003C0BCF1280F05D100F1080C08FA0CF899
:100FD000C2F8148091F803C0BCF1480F07D100F1AA
:100FE000080C4FF0010808FA0CF8C2F81080401CF9
:100FF0000828CED35460BDE8F0814FF6FF71018020
:10100000022181700421C17070470246002093685C
:101010000B4201D0012000E00020704701468868A3
:1010200080B2704702460020D3680B4201D00120F5
:1010300000E0002070470146C86880B27047016137
:101040007047416170470AB1016100E0416170473A
:10105000C16070474FF480320A43826181618261CE
:1010600082698269704702460020424B18684FF639
:101070008073184040EA021008433E4B18607047E6
:101080003D49C8617047F0B50A460023002400219D
:10109000002500F00046B6F1004F02D1354EF1694F
:1010A00001E0344E7168C0F3034583B200F440168A
:1010B000B6F5401F08D121F070612E4E766826F0FB
:1010C00070662C4F7E6012E000F48016B6F5801F2B
:1010D00006D1032606FA05F4A14341F0706106E04B
:1010E000460D360103FA06F6B14341F0706122B1B4
:1010F000460D360103FA06F6314300F00046B6F11C
:10110000004F02D11B4EF16101E01A4E7160F0BD3B
:1011100030B500228B071C0F0F2303FA04F2154B86
:1011200008338C1053F824309343124C08348D103C
:1011300044F8253023468C1053F824308C07240FB4
:1011400000FA04F423430B4C08348D1044F8253086
:1011500030BD0A490860704700080140000C01409A
:10116000001001400014014000180140001C014023
:10117000002001400000014000002042DC0020422D
:10118000DD48006840F00100DB490860084640681F
:10119000DA490840D849486008460068D8490840FC
:1011A000D54908600846006820F480200860084699
:1011B000406820F4FE0048604FF41F0088607047CC
:1011C000CD49096821F48031CB4A11601146096884
:1011D00021F480211160B0F5803F03D0B0F5802F5D
:1011E0000ED106E0C449096841F48031C24A116059
:1011F00007E0C149096841F4A021BF4A116000E03D
:1012000000BF00BF704710B5014600220023002038
:101210004A11012A02D1B84C236806E0022A02D101
:10122000B54C236A01E0B44C636A01F01F0201244B
:1012300094401C4201D0012000E0002010BD38B5D0
:10124000002000900024002500BF3120FFF7DBFFC5
:1012500005460098401C00900098B0F5A06F01D0A2
:10126000002DF2D03120FFF7CEFF08B1012400E0BD
:101270000024204638BD014600209F4A106820F017
:10128000F80040EAC100106070479E49086070474E
:1012900002460020984B586820F47C1042EA010373
:1012A0001843954B58607047964908667047014649
:1012B0000020914A506820F00300084350607047B6
:1012C0008D48406800F00C007047014600208A4AB3
:1012D000506820F0F000084350607047014600203D
:1012E000854A506820F4E06008435060704701462A
:1012F0000020814A506820F4605040EAC1005060EC
:10130000704729B17C4A527A02437B4B5A7204E0FF
:10131000794A527A8243784B5A7270477A49086008
:10132000704701460020744A506820F4404008434A
:10133000506070470021754A11706F4A82F8201082
:10134000012802D0042808D103E001216F4A11705E
:1013500004E005216D4A117000E000BF00BF704736
:101360006B49086070476449096A0143624A116227
:101370007047674944390860704730B50021002242
:10138000002400235C4D6D6805F00C0121B1042997
:1013900005D0082923D105E05E4D056022E05D4DB2
:1013A00005601FE0544D6D6805F47012524D6D6874
:1013B00005F48034022505EB92421CB9564D554385
:1013C00005600BE04C4D6D6815F4003F03D0524DA5
:1013D0005543056002E04F4D5543056002E04D4D19
:1013E000056000BF00BF444D6D6805F0F0010909BC
:1013F0004A4D6B5C0568DD4045603F4D6D6805F406
:10140000E061090A454D6B5C4568DD4085603A4DF9
:101410006D6805F46051C90A404D6B5C4568DD405C
:10142000C560354D6D6805F44041890B3C4D6B5CE2
:10143000C568B5FBF3F5056130BD29B12E4A526987
:1014400002432D4B5A6104E02B4A526982432A4BD6
:101450005A61704729B1284A92690243264B9A6122
:1014600004E0254A92698243234B9A61704729B16F
:10147000214AD2690243204BDA6104E01E4AD26954
:1014800082431D4BDA61704729B11B4AD26802437F
:10149000194BDA6004E0184AD2688243164BDA60CE
:1014A000704729B1144A12690243134B1A6104E0D0
:1014B000114A12698243104B1A617047144940392E
:1014C000086070470F49C86470470B49C87170477E
:1014D0000948406A40F080700749486270470146F9
:1014E0000020054A92680A4201D0012000E0002055
:1014F0007047014988727047001002400000FFF8F1
:10150000FFFFF6FE00004242D80042422010024097
:101510008004424200127A0000093D00F8010020D8
:101520000802002010B50446FB48844209D101217D
:101530008803FFF7A9FF00214FF48040FFF7A4FFC5
:1015400032E0F648844209D101214804FFF7A9FF9F
:1015500000214FF40030FFF7A4FF25E0F04884425B
:1015600009D101218804FFF79CFF00214FF480205E
:10157000FFF797FF18E0EB48844209D10121C80426
:10158000FFF78FFF00214FF40020FFF78AFF0BE0E9
:10159000E548844208D101210805FFF782FF0021B8
:1015A0004FF48010FFF77DFF10BD2DE9F04786B0A6
:1015B00005460E460024A24600BFA1460027B0897A
:1015C00000B100BF2F462C8A4CF6FF700440F08813
:1015D00004432C82AC894EF6F3100440B088318964
:1015E0000843718908430443AC81AC8A4FF6FF403D
:1015F0000440B0890443AC8201A8FFF7BEFEC64890
:10160000874202D1DDF810A001E0DDF80CA0A88926
:1016100010F4004F08D00AEBCA0000EB0A10316842
:101620004900B0FBF1F807E00AEBCA0000EB0A1032
:1016300031688900B0FBF1F86420B8FBF0F00401D8
:101640002009642101FB1089A88910F4004F08D0FB
:10165000322000EBC900B0FBF1F000F007000443BA
:1016600008E0322000EB09106421B0FBF1F000F03B
:101670000F0004432C8106B0BDE8F0874FF41651EB
:10168000016000218180C18001810C214181002104
:101690008181704710B502460020108A4FF2FF0387
:1016A00018400B884C8823438C882343CC882343E1
:1016B0001843108210BD0021018041808180C180CB
:1016C000704721B1828942F40052828104E082890C
:1016D0004DF6FF731A4082817047F0B5034600242F
:1016E000002600250020A1F510676A3F00D100BF49
:1016F0001846C1F3421401F01F06012707FA06F548
:10170000012C01D10C3004E0022C01D1103000E09A
:1017100014301AB107682F43076002E00768AF432F
:101720000760F0BD1AB1838A0B43838202E0838A8B
:101730008B4383827047028A4FF6F0731A4002820D
:10174000028A0A430282704782894FF2FF731A406D
:10175000828182890A438281704721B1828942F065
:101760000202828104E082894FF6FD731A40828171
:101770007047028A4FF6DF731A400282028A0A43D8
:101780000282704721B1028A42F48042028204E060
:10179000028A4BF6FF731A4002827047C1F30802B7
:1017A0008280704701468888C0F3080070478189AD
:1017B00041F0010181817047028BD2B20283028B1A
:1017C00042EA012202837047028B02F47F420283C5
:1017D000028B0A430283704721B1828A42F02002C1
:1017E000828204E0828A4FF6DF731A408282704759
:1017F00021B1828A42F01002828204E0828A4FF68E
:10180000EF731A408282704721B1828A42F0080247
:10181000828204E0828A4FF6F7731A408282704710
:1018200021B1828942F40042828103E08289C2F3BD
:101830000E028281704721B1828A42F40062828264
:1018400004E0828A4FF2FF731A4082827047828AD4
:101850004FF6FB731A408282828A0A438282704763
:1018600021B1828A42F00202828204E0828A4FF62B
:10187000FD731A408282704702460020B1F5007F56
:1018800000D100BF13880B4201D0012000E00020EE
:10189000704701F40072B2F5007F00D100BFCA4367
:1018A0000280704770B50246002400230025002006
:1018B000A1F510666A3E00D100BFC1F3421501F0E8
:1018C0001F03012606FA03F3012D02D19689334046
:1018D00006E0022D02D1168A334001E0968A334099
:1018E0000C12012606FA04F41688344013B10CB128
:1018F000012000E0002070BD10B500220023A1F5FA
:1019000010646A3C00D100BF0A1201249440A3B2C3
:10191000DC43048010BD000000380140004400405A
:1019200000480040004C0040005000407047032A2F
:1019300040F2308010F0030C00F0158011F8013BEC
:10194000BCF1020F624498BF11F801CB00F8013BD3
:1019500038BF11F8013BA2F1040298BF00F801CB97
:1019600038BF00F8013B11F0030300F04B80083A48
:10197000C0F0088051F8043B083A51F804CBA0E8C5
:101980000810F5E7121D5CBF51F8043B40F8043B1A
:10199000AFF30080D20724BF11F8013B11F801CB4F
:1019A00048BF11F8012B24BF00F8013B00F801CB20
:1019B00048BF00F8012B70474FF000020429C0F027
:1019C000128010F0030C00F05180CCF1040CBCF13B
:1019D000020F18BF00F8012BA8BF20F8022BA1EBC3
:1019E0000C0100F043B85FEAC17C24BF00F8012B72
:1019F00000F8012B48BF00F8012B70477047704773
:101A00007047704710B5203AC0F00B80B1E818500D
:101A1000203AA0E81850B1E81850A0E81850BFF4D8
:101A2000F5AF5FEA027C24BFB1E81850A0E8185077
:101A300044BF18C918C0BDE810405FEA827C24BFCB
:101A400051F8043B40F8043B08BF7047D20728BF59
:101A500031F8023B48BF11F8012B28BF20F8023BA8
:101A600048BF00F8012B70474FF0000200B5134645
:101A700094469646203922BFA0E80C50A0E80C50AE
:101A8000B1F12001BFF4F7AF090728BFA0E80C505F
:101A900048BF0CC05DF804EB890028BF40F8042B58
:101AA00008BF704748BF20F8022B11F0804F18BFC5
:101AB00000F8012B7047754600F028F8AE46050087
:101AC0006946534620F00700854618B020B5FFF759
:101AD0002BF9BDE820404FF000064FF000074FF013
:101AE00000084FF0000B21F00701AC46ACE8C0093C
:101AF000ACE8C009ACE8C009ACE8C0098D46704745
:101B00000446AFF300802046FEF779FB004870479B
:101B100070040020341B0008000000200C020000AC
:101B20006C0100081C1C00080C020020C408000006
:101B3000C8010008145A5506130D063CC86A690A04
:101B400012032AC50A1A080A2D5001021A0C120C97
:101B50001B0D020C2312027A311C12057A1C0C1187
:101B60002B071E0C1207230D1B5ADE0B22195ADC01
:101B70003E221C332C01DA111B193D221A2B01DFE6
:101B80000C12134B0D182732C8196B4949397C11B7
:101B90002407FFFF5A1FA212205AE248221F390BC6
:101BA000120E130D211301041301035C0F04071D12
:101BB000121E3A011D49A2110A2B17A25A1B96396F
:101BC000267B01DD262924217AE5267B02E0266A90
:101BD00002B03A1CBE217AE6267B03E1263A03577F
:101BE000392652035AE7D6121D391A49AECB071EC1
:101BF000EC190A7A252A12220410E46A694999111B
:101C00007CA24A041200081C0203040607080929E2
:0C1C1000246928050002040608000000FA
:0400000508000131BD
:00000001FF
