:03000000020C618E
:0C0C6100787FE4F6D8FD75817D020CA8B8
:10107E000000000000000000000000000000000062
:06108E000000000000005C
:090E9100014F00014C0001490071
:10104A00C2AC438920759850758DFD758BFDC29889
:0A105A00D28ED2AF758780D2AC228F
:03002300020F21A8
:100F2100C0E0C0D075D018309833C298E521D39471
:100F31000B40028025743C2521F8A699E53CB402BA
:100F4100190521E521B40B0DD3940D50087521002D
:100F5100752E028008752E018003752100D0D0D036
:020F6100E0327C
:080003008F993099FDC299228A
:060D74008B5B8A5C895DC7
:100D7A00785E7C007D007BFF7A10797E7E007F0B97
:100D8A001209A7E4F569F56AFDFCAB5BAA5CA95DEB
:100D9A008D828C831209E6FF745E2DF8A6070DBDBD
:100DAA0000010CED640B4C70E17B007A0079607DE8
:100DBA0006120DE48E698F6A856A67E569F566E44D
:100DCA00FCFD745E2DF8E6FF1200030DBD00010C58
:090DDA00C3ED940BEC940040E918
:010DE30022ED
:020E3D008F58CC
:100E3F0078597C007D007BFF7A1079897E007F0BCB
:100E4F001209A7E4FFFEFD742F2DF8E6FC74592D4F
:100E5F00F8A6040DBD0BF075598285585C7B007A9E
:100E6F0000795B7D06120DE48F628E61756383E4FA
:100E7F00FD74592DF8E6FF1200030DEDC3940B40DE
:010E8F00F072
:010E9000223F
:100714008208210000000000A6E383820822000171
:10072400010000BCA9838208220001020000D8460F
:10073400838208220002010000718C838208220057
:100744000202000015638382082200030100007185
:100754008C838208220003020000718C83820822A9
:100764000003030000718C83820823000000000052
:100774004BF78382082300010000004BF7838208B3
:1007840023000200000086D28382082300030000B5
:10079400003DCE8382082300040000001C9983825C
:1007A40008230005000000A78583820823000600B3
:1007B40000006AA0838208230007000000D1BC83E4
:1007C4008208230008000000280E83820823000901
:1007D400000000931283820823000A0000005E37A1
:1007E40083820823000B000000E52B83820823008A
:1007F4000C000000C47C83820823000D000000A3C9
:100804003A83820823000E0000000AF08382082342
:10081400000F000000095983820823001101000021
:10082400A33A8382082300110200000AF08382089D
:1008340023001103000009598382082300120000D9
:10084400000000838208230013000000000083825C
:10085400082300EE000000000083820823000C013E
:100864000000C47C83820823000D010000A33A83A6
:10087400820823000D020000C7D583820823000DDF
:10088400030000C7D583820823000E0100006E1FF9
:1008940083820823000E0200000AF08382082300EA
:1008A4000F010000095983820823000F0200005140
:1008B400288382082300100000000000838208249B
:1008C400000000000021F7838208240000010000DA
:0308D4001F668319
:0D0E9A000B7082082400000000000000839F
:0510D500D290C291223F
:0510DA00C290D291223A
:0910B100D290D2917F6402000E7E
:0910BA00C293C296D295D2942291
:0910C300D293D296C295C2942288
:0910CC00D293D296D295D294225F
:020DE4008D6B15
:100DE600756C84756D0874FFF56EF56FE4FDEDC3E3
:100DF600956B503E1209CD626FE40429F9E43AFA84
:100E0600E4FCE56F5401D39400E49400E56E4012CF
:100E160013FEE56F13FFE56C6EF56EE56D6FF56F0E
:100E26008009C313F56EE56F13F56F0CBC08D30D7F
:060E360080BCAE6EAF6F40
:010E3C002293
:10002600E4F554E54A6003020713E54B24D0700358
:1000360002018424F070030204EB24F0700302032F
:100046002A24F070030202E924C07003020114247A
:10005600F0607324F0700302015C24B060030207B1
:1000660013E552705EE55324EF60221460432402C8
:1000760070517BFF7A077914120D741210D575161C
:1000860010750E10755200755311757C01E516C377
:10009600940840030207131210DAE51660030207FC
:1000A600131210B175160C75131475520075531290
:1000B600227BFF7A0879B6120D74755200755313B8
:1000C6000203D00204E4E5527041E553244F602850
:1000D600146035240270347BFF7A07794B120D7455
:1000E6001210D57BFF7A08791C120D747516F075FF
:1000F60052007553B102030BE51670051210B1805C
:10010600007552007553B222E4F57C0204E4E55210
:100116007041E553245F6028146035240270347BF7
:10012600FF7A077956120D741210DA7BFF7A087976
:1001360027120D747516F07552007553A102030B44
:10014600E51670051210B180007552007553A22293
:10015600E4F57C0204E4E5527021E5532440701B6B
:100166007BFF7A077961120D74757C011210B17BE1
:10017600FF7A087932120D74E4F57C0204E4E55244
:1001860060030202E6E55324D0B4080040030202ED
:10019600E69001A575F003A4C58325F0C583730217
:1001A60001BD0201D50201E602020E02029602021A
:1001B600A60202D10202E17BFF7A07791F120D74B3
:1001C600750E10E4F517757C01F5527553312275DD
:1001D60013F07511281210CC7BFF7A0779CF807C3B
:1001E600208116E5136012D2007513F075112012E6
:1001F60010D575520075533322E5136003020713B9
:10020600C200F55275533622E51160383083063048
:100216008103020713308306208103020713E517C3
:10022600D39405400E30810B1210B17552007553F0
:1002360034804B3083030207133081030207131205
:1002460010B18055E5116003020713C2001210B108
:100256003083133081107BFF7A08797F120D747515
:100266005200755332223083062081030207132081
:10027600831030810D7552007553341210C37513F7
:1002860028223083030207133081030207138009F3
:100296007BFF7A0779E5120D747552007553352286
:1002A6002081141210CCE4F517F5527553377BFFF5
:1002B6007A08793D020D74E4F54C7BFF7A0879697A
:1002C600120D747BFF7A08796980067BFF7A0779BD
:1002D600E5120D7475520075533722C200E4F57CA1
:1002E6000204E4E552703AE553249E601C04703122
:1002F6007BFF7A077940120D747513107512087515
:100306005200755362757C01227F051210941210FB
:10031600B17BFF7A0779E5120D7475520075536348
:10032600220204E4E55260030204E4E55324B0B477
:10033600100040030204E490034B75F003A4C58348
:1003460025F0C5837302037B0203990203B30203FC
:10035600D40203E10203F102040C02041B0204446A
:100366000204580204BB0204E40204C40204E102CB
:1003760004E40203847BFF7A07792A120D7475124E
:10038600107513101210DAE4F50FF5527553517506
:1003960010F022E512600CE50FC3940A5003020721
:1003A6001380031210B175520075535222E512D311
:1003B60094004007755200755359227BFF7A0879DD
:1003C600A0120D7475520075535AE4F57C22E5129D
:1003D6006003020713F552755354221210B1120F1F
:1003E600DD75103C75520075535522E510600D20E1
:1003F6008103020713755200755356227552007514
:100406005359751378221210DAE4F50F75120CF5AC
:100416005275535722E512601EE50FC394C8500368
:10042600020713755200755358E512D39400500312
:10043600020713E4F5122275520075535822E5128D
:100446006003020713F5527553597510A07513789A
:100456008021E51270031210B1E50F6007E5106008
:1004660003020713E50F600EE510700AE51360033B
:100476000210DA0210B1E50F7012E510600E1210CC
:10048600B17BFF7A0879A0120D748014E50F701005
:10049600E510700CF55275535C1210B175131022ED
:1004A600300109C20175520075535C227552007500
:1004B600535AE4F57C754A00754B3002063EE50F4B
:1004C600C3946450030207131210B17BFF7A0779B5
:1004D600E5120D7475520075535D22E4F57C754A7C
:1004E60000754B9022E552600302070AE55324C0CB
:1004F600B40C00400302070A90050C75F003A4C56E
:100506008325F0C583730205300205510205EA0210
:10051600064502066002067702068B02069F020661
:10052600D60206EA0206FB020707C2947FDC7E05B6
:10053600121068D294750D107BFF7A077935120D6B
:1005460074755200755341E4F54922E5496003028A
:1005560005E3E50D70030205E3E55145507010F51E
:100566004FE5176003434F01E50F6003434F02E574
:100576004F606124FE605D14602424027059E550CA
:10058600701AE551146005047012801EE50D60476F
:10059600E5176003020713754901802C8039E55081
:1005A6007030E551146010047028750D101210D5C6
:1005B60075500075510122E50D6015E517600302BF
:1005C6000713754901754C01F550F551F552801028
:1005D600800580031210D5E4F550F55122755200BE
:1005E600755342222083051210D580F87F0A7E00BB
:1005F6001210681210641210641210641210641241
:100606001064D2927513101210B17BFF7A08798AA2
:10061600120D747BFF7A08798A120D747BFF7A08B3
:10062600798A120D74E54CB401087552007553436E
:100636008006754A00754B30755200755330227529
:100646000D141210DA7513087BFF7A0779E5120D7F
:1006560074E4F50FF55275534422E50D600CE50F71
:10066600C3940A5003020713800075520075534560
:1006760022850D0BE50DD394005003020713755226
:100686000075534622E50D60030207131210B112DE
:100696000FDD75520075534722E50F70701210DAA0
:1006A60075130C1210C320840B1210CC7BFF7A0733
:1006B60079E5800DE513700C1210CC7BFF7A077973
:1006C600F0120D74E4F50F850B0DF55275534822A3
:1006D600E50D6009E50FC3940A40328000755200AB
:1006E60075534922E50DD394004003750D027552EA
:1006F6000075534A22E50D7014F55275534B1210CE
:0D070600B1E4F57C754A00754B9075130841
:0107130022C3
:100BC400E4F555E52E64026003020C4F750AF0F556
:100BD40054743C2554F8E6FF742F2554F8A6077482
:100BE4003C2554F8E4F60554E554B40BE4E4F52E3E
:100BF400E539B40306E530640860057555068037A9
:100C0400853122853223853324853425853526850F
:100C14003627C2AF7B007A0079227D06120DE4AD3F
:100C240007AC06AF37EFFEE538FFD2AFED6F7002C9
:100C3400EC6E6003755501E555700BAB34AD33AF05
:100C440031120A138005AF55120E3DE4F554742F8A
:0C0C54002554F8E4F60554E554B40BF206
:010C60002271
:100A13008D568B57EF24DE603D24FE7003020B16C8
:100A230024E47003020B19241F6003020B1C754A94
:100A330000754B10755200755310E4F550F551F5E0
:100A430014F508F515F50FF510F517F516F511F56D
:100A530012F50DF50B22E556B40218E557B402134F
:100A6300308318200015754A00754B607552007568
:100A7300536122E54B6490454A60057F04020B1ED7
:100A8300E556B40112E557B4010D754A00754B30B4
:100A930075520075533022E556B40112E557B4027E
:100AA3000D754A00754B5075520075535022E5562B
:100AB300B40217E557B40112754A00754B407552DD
:100AC30000755340E4F550F55122E556B40312E5A1
:100AD30057B4010D754A00754BB07552007553B08C
:100AE30022E556B40312E557B4020D754A00754B5F
:100AF300A07552007553A022E556B40312E557B40E
:100B0300030D754A00754BC07552007553C0227FA3
:0F0B1300038008020F630200207F02120E3D22B2
:100F63007BFF7A0879C1120D74AF8053070FC374E6
:100F73000F9FFFAEA05306E0EEFD3395E0FCED645A
:100F8300E04C70147F5012000EAF8053070FC374F0
:100F93000F9FFFAEA05306E0C374E09EFE4207021C
:020FA300100F2D
:10100F00EF70078F7475750180058F74E4F575F5B2
:10101F0058755900755A70AB58AA59A95A020D74D0
:100B2200EF540FB409004003020BB2900B34F828C3
:100B32002873020B4F020B5A020B65020B70020B59
:100B42007B020B86020B91020B9C020BA77555FFD1
:100B520075560775576C80617555FF755607755741
:100B62007780567555FF755607755782804B7555B8
:100B7200FF75560775578D80407555FF7556077579
:100B8200579880357555FF7556077557A3802A7596
:100B920055FF7556077557AE801F7555FF75560779
:100BA2007557B980147555FF7556077557C4800976
:100BB2007555FF755608755753AB55AA56A9570276
:020BC2000D74B0
:0100200022BD
:100FDD00E57B540FFEE4F57BE515C39464400343B4
:100FED007B01E50FC394644003437B02E517C39473
:100FFD00644003437B08E57B540FFF6E6003120BC7
:01100D0022C0
:01100E0022BF
:041064007FC87E00C3
:10106800EF1FAA0670011E4A600B7D6EEDD3940037
:0510780040EE1D80F7B1
:01107D002250
:100EDE0005FF65E5CB06FF8005295514FF8105004A
:100EEE0000000000000000000000000000EE9F095E
:100EFE00FFB023001B01365B07FFB001001C561428
:100F0E00FF81050202000000000000000002010047
:030F1E0000CA0AFC
:060EA700017B00017C004C
:100FA500757C0112102FE4F57CF52ED29CE50A70B4
:100FB50018750AF0E517C394FA400ED201754A0078
:100FC500754B5075520075535F120BC4120026E520
:080FD5007C70DA120FDD80D5FB
:03000B00020CEDF7
:100CED00C0E0C0D0758ACC758CF820800BE515D38B
:100CFD0094FA50070515800375150020810BE50F3B
:100D0D00D394FA5007050F8003750F0020830BE570
:100D1D0017D394FA5007051780037517000514E5CE
:100D2D0014C394FA403C750801751400E516600271
:100D3D001516E51160021511E51260021512E50D8B
:100D4D006002150DE50D6002150DE5106002151020
:100D5D00E50E6002150EE51360021513E50A60023B
:070D6D00150AD0D0D0E032DE
:100EAD00011400010800011500010F0001100001DF
:100EBD001700011600011100011200010D00010BB8
:100ECD0000010E00011300010AF0010C00010900E0
:0C10A500758921758ACC758CF8D28C22DC
:10000E00EFD39400400B7E8D7D05DDFEDEFA1F8062
:01001E00EFF2
:01001F0022BE
:10109400AC07ECD3940040087FC812000E1C80F209
:0110A4002229
:10102F00754A00754B90755200755390E4F514F5A1
:0B103F00081210A512104A75A892229A
:100C6D00020FA5E493A3F8E493A34003F68001F2E9
:100C7D0008DFF48029E493A3F85407240CC8C33388
:100C8D00C4540F4420C8834004F456800146F6DF57
:100C9D00E4800B0102040810204080900E91E47E48
:100CAD00019360BCA3FF543F30E509541FFEE4934C
:100CBD00A360010ECF54C025E060A840B8E493A313
:100CCD00FAE493A3F8E493A3C8C582C8CAC583CA3E
:100CDD00F0A3C8C582C8CAC583CADFE9DEE780BEF6
:010EDD000014
:1008D700E709F608DFFA8046E709F208DFFA803E03
:1008E70088828C83E709F0A3DFFA8032E309F608F0
:1008F700DFFA8078E309F208DFFA807088828C8358
:10090700E309F0A3DFFA806489828A83E0A3F6080B
:10091700DFFA805889828A83E0A3F208DFFA804CE5
:1009270080D280FA80C680D4806980F280338010BC
:1009370080A680EA809A80A880DA80E280CA803325
:1009470089828A83ECFAE493A3C8C582C8CCC5839D
:10095700CCF0A3C8C582C8CCC583CCDFE9DEE7806D
:100967000D89828A83E493A3F608DFF9ECFAA9F0EC
:10097700EDFB2289828A83ECFAE0A3C8C582C8CC42
:10098700C583CCF0A3C8C582C8CCC583CCDFEADE5B
:10099700E880DB89828A83E493A3F208DFF980CCBD
:1009A70088F0EF60010E4E60C388F0ED2402B404B6
:1009B7000050B9F582EB2402B4040050AF2323455D
:0609C70082239009277352
:1009CD00BB010689828A83E0225002E722BBFE0228
:0909DD00E32289828A83E493225B
:1009E600BB010CE58229F582E5833AF583E02250C6
:1009F60006E92582F8E622BBFE06E92582F8E22210
:0D0A0600E58229F582E5833AF583E4932229
:00000001FF
