:020000040800F2
:10000000D00A0020010E0008150900081709000891
:100010001B0900081F090008230900080000000050
:100020000000000000000000000000002709000898
:1000300029090008000000002B0900082D0900080C
:100040001B0E00081B0E00081B0E00081B0E0008EC
:100050001B0E00081B0E00081B0E00081B0E0008DC
:100060001B0E00081B0E00081B0E00081B0E0008CC
:100070001B0E00081B0E00081B0E00081B0E0008BC
:100080001B0E00081B0E00081B0E00081B0E0008AC
:100090001B0E00081B0E00081B0E00081B0E00089C
:1000A0001B0E00081B0E00081B0E00081B0E00088C
:1000B0001B0E00081B0E00081B0E00081B0E00087C
:1000C0001B0E00081B0E00081B0E00081B0E00086C
:1000D0001B0E0008010D00081B0E00081B0E000877
:1000E0001B0E00081B0E00081B0E00081B0E00084C
:1000F0001B0E00081B0E00081B0E00081B0E00083C
:100100001B0E00081B0E00081B0E00081B0E00082B
:100110001B0E00081B0E00081B0E00081B0E00081B
:100120001B0E00081B0E00081B0E00081B0E00080B
:1001300000F002F800F05AF80AA090E8000C82449F
:100140008344AAF10107DA4501D100F04FF8AFF27C
:10015000090EBAE80F0013F0010F18BFFB1A43F0A5
:1001600001031847B01A0000D01A00000A444FF0EB
:10017000000C10F8013B13F0070408BF10F8014B06
:100180001D1108BF10F8015B641E05D010F8016B4B
:10019000641E01F8016BF9D113F0080F1EBF10F8AF
:1001A000014BAD1C0C1B09D16D1E58BF01F801CBD2
:1001B000FAD505E014F8016B01F8016B6D1EF9D555
:1001C0009142D6D37047000000230024002500266A
:1001D000103A28BF78C1FBD8520728BF30C148BFAA
:1001E0000B6070471FB51FBD10B510BD01F0DFFCDF
:1001F0001146FFF7F7FF00F042FA01F0FDFC03B4EF
:10020000FFF7F2FF03BC00F019FD000070B50446D3
:100210000D4600260DE000BF8021FE4801F0A8FB3E
:100220000028F9D02178FB4801F034FB641C701CD5
:10023000C6B2AE42EFDB70BD70B577E06421F64820
:1002400001F036FCF549F6480068801C095CF34A69
:10025000F3480068C01C105C01EB0020001DF14950
:1002600008601046EE4A12688118EE480268EE48AF
:1002700001F0D9FBEC488078132820D1EA48C078F7
:10028000E8B9E94800790D2819D1E74840791828DC
:1002900015D1E548807990B99620E349087200208D
:1002A00048720875002408E0DF48007DDE49095DDA
:1002B0000844DD490875601CC4B2142CF4DBD9482D
:1002C0000178D948FFF7A2FFD7484079022803D127
:1002D000D548807950281DD0002600250CE001204B
:1002E00000F079FCD1480078012804D101260020D3
:1002F000CE49087003E06D1CB5F5FA6FEFD300BF6F
:1003000046B98021CA4800F016FF4FF48071C848F2
:1003100000F013FFC2480068C24909680844C04998
:100320000860BE480968405C00B900E086E700BF8D
:1003300070BD10B56421B84801F0BAFB0C21BDA016
:10034000FFF764FF10BD10B56421B34801F0B0FBA6
:100350000A21BCA0FFF75AFF002400BF0CE00120D7
:1003600000F039FCB1480078012804D101240020B4
:10037000AE49087003E0641CB4F5FA6FEFD300BF18
:1003800044B98021AA4800F0D6FE4FF48071A848F5
:1003900000F0D3FE10BD10B50020AD49087040E05C
:1003A000A2480078012834D1AA48007888BB9A482E
:1003B000407805282AD19848807E6A2826D1964818
:1003C000C07E692822D10020A249087000241BE0C9
:1003D000A148015D904A04F10D00105C814211D0EA
:1003E0009D4802F10D010A6802604A68426089680E
:1003F00081600120974908708748407B00F01F000A
:1004000096490870601CC4B20C2CE1DB00208749BF
:100410000870052000F0DFFB8D480078401C8C49F7
:1004200008708B4800786428BADB10BD10B5022133
:100430007F4800F080FE0A2000F0CDFB04217C48BC
:1004400000F07BFE10BD10B50221794800F075FE6A
:100450000A2000F0C0FB0421754800F06CFE10BDBE
:1004600010B50221724800F066FE0421704800F0C9
:1004700062FE10BD10B501216D4800F05EFE40F631
:10048000B83000F0A8FB0121694800F054FEFFF7E6
:10049000CDFF10BD10B50821654800F04EFEFFF7F6
:1004A000C5FF00BF04216E4800F02BFE0028F9D1E3
:1004B00000BF04216A4800F024FE0028F9D008217A
:1004C0005B4800F038FE502000F085FBFFF7BBFFD3
:1004D00010BD10B50121564800F02FFE40F6B8308F
:1004E00000F079FB0121524800F025FE10BD10B547
:1004F00002214F4800F021FE40F6B83000F06BFBBF
:1005000002214B4800F017FE10BD10B504214848E9
:1005100000F013FE40F6B83000F05DFB04214448C3
:1005200000F009FE10BD10B50821414800F005FE9D
:1005300040F6B83000F04FFB08213D4800F0FBFDCD
:1005400010BD10B510213A4800F0F7FD40F6B83064
:1005500000F041FB1021364800F0EDFD10BD10B554
:100560002021334800F0E9FD40F6B83000F033FBBD
:1005700020212F4800F0DFFD10BD10B540212C4890
:1005800000F0DBFD40F6B83000F025FB40212848A4
:1005900000F0D1FD10BD10B500240121244800F069
:1005A000CAFD0221224800F0C6FD0421204800F0C7
:1005B000C2FD08211E4800F0BEFD10211C4800F0BD
:1005C000BAFD20211A4800F0B6FD4021184800F07D
:1005D000B2FD8021164800F0AEFD4FF48071144842
:1005E00000F0A9FD4FF40071114800F0A4FDC820EF
:1005F00000F0F1FAC82000F0EEFAC82000F0EBFAA3
:10060000C82000F0E8FAC82000F0E5FAC82000F0A1
:10061000E2FA27E0003801400C0200200000002030
:10062000B8010020BC01002070020020B7010020AA
:10063000001001405A5508000D11000001D66A69EA
:10064000000000005A5506000D0300C56A6900004D
:10065000C8010020C901002064040020C10100205D
:10066000000C0140C82000F0B6FAC82000F0B3FA30
:10067000C82000F0B0FAC82000F0ADFA10BD00F0BC
:100680006DFA00F0D5FA4FF4E13000F0EAFA00F02C
:100690003FFAFFF780FFFFF7CFFD20E101219048EF
:1006A00000F02FFD68B900208E4908708E4908704F
:1006B0008E4908708E4908704FF480718D4800F0A3
:1006C0003AFD0221864800F01CFD002874D14FF449
:1006D0008071884800F031FD00208249087082490D
:1006E00008708249087082490870FFF722FE0020D6
:1006F000814908708149087081490870814800214A
:10070000016041608160642551E06D1E7E48007883
:10071000012849D17D484078052842D17B48007F97
:100720006A2803D07948407F6A283AD17548007812
:1007300008BB74484078F0B9724874490D310A68B2
:1007400002604A684260896881607048407BC228C4
:1007500007D16E48C07D684908700120674908705C
:100760001FE06A48407B00F01F00634908700120C9
:100770006249087015E000206549087000240DE00A
:100780006048015D614A04F10D00105C814203D0B4
:1007900000205A49087003E0601CC4B20C2CEFDB47
:1007A00000BF0020584908700A2000F014FA1DB15B
:1007B000524800780028A8D050480078012860D11D
:1007C0000A2000F008FA00204649087046490870DF
:1007D00046490870464908704849087046480078FC
:1007E000012802D1FFF775FE4BE04348007802284C
:1007F00002D1FFF76EFE44E03F480078032802D1A3
:10080000FFF767FE3DE03C480078042802D1FFF77F
:1008100060FE36E038480078052802D1FFF759FE1F
:100820002FE035480078062802D1FFF752FE28E075
:1008300031480078072802D1FFF74BFE21E02E480F
:100840000078082802D1FFF752FE1AE02A48007803
:10085000092802D1FFF74BFE13E0274800780A2849
:1008600002D1FFF744FE0CE0234800780B2802D1A8
:10087000FFF73DFE05E0204800780C2801D1FFF786
:1008800036FE0A2000F0A7F91648007838BB164853
:100890000078401CC0B21449087064281FDB002097
:1008A000087012480078401CC0B2104908703C28FB
:1008B00015DB002008700E480078401CC0B20C49BF
:1008C000087001280BDB00200749087007490870F1
:1008D00007490870012003490870FFF734FDDDE681
:1008E000000C0140C6010020C3010020C40100200B
:1008F000C501002000100140C0010020C2010020FD
:10090000C701002064040020B70100200C02002071
:10091000C9010020704700BFFEE700BFFEE700BF2F
:10092000FEE700BFFEE77047704770477047000062
:100930000CB50020019000906C48006840F48030B5
:100940006A49086000BF6948006800F40030009000
:100950000198401C0190009818B90198B0F5A06F5B
:10096000F1D16248006800F4003010B1012000901D
:1009700001E0002000900098012843D15C48006805
:1009800040F010005A4908600846006820F0030053
:1009900008600846006840F002000860534840685C
:1009A000524948600846406848600846406840F43C
:1009B000806048600846406820F47C104860084623
:1009C000406840F4E81048600846006840F08070D5
:1009D000086000BF4548006800F000700028F9D0AA
:1009E0004248406820F0030040494860084640689B
:1009F00040F00200486000BF3C48406800F00C0036
:100A00000828F9D10CBD10B5FFF792FF10BD10B545
:100A10003648006840F001003449086008464068E4
:100A20003449084031494860084600683249084066
:100A30002E4908600846006820F4802008600846B7
:100A4000406820F4FE0048604FF41F008860FFF704
:100A5000DAFF4FF000602949086010BD10B5002191
:100A600000200022214B5B6803F00C0121B1042916
:100A700006D0082928D107E0214B224C236027E02B
:100A80001F4B204C236023E0184B5B6803F470106D
:100A9000164B5B6803F48032022303EB904022B9CB
:100AA000194B4343174C23600DE0104B5B6803F474
:100AB000003323B1144B4343124C236003E0104B2B
:100AC0004343104C236003E00D4B0E4C236000BFEA
:100AD00000BF064B5B68C3F303130C4CE15C094B8E
:100AE0001B68CB40074C236010BD00000010024083
:100AF000002002400000FFF8FFFFF6FE08ED00E0D6
:100B000000127A00CC01002000093D00D001002035
:100B100008B501215C2000F01DFD40F2FF30ADF86A
:100B2000000010208DF8030003208DF802006946B4
:100B3000084800F053FA3720ADF8000004208DF883
:100B4000030003208DF802006946034800F046FACE
:100B500008BD000000100140000C014010B56FF00E
:100B6000040000F0BCF92E4800682E49B0FBF1F0FB
:100B70002D4908700846007800EB4001C1EBC01019
:100B80004FF6FF7101EAC0002849088010BD0146F8
:100B9000254A12784A434FF0E0235A6100229A61B5
:100BA0001A46126942F001021A6100BF4FF0E022BA
:100BB000106900F001021AB100F48032002AF5D069
:100BC0004FF0E022126922F001024FF0E0231A6197
:100BD00000229A6170470146144A12884A434FF036
:100BE000E0235A6100229A611A46126942F001021A
:100BF0001A6100BF4FF0E022106900F001021AB143
:100C000000F48032002AF5D04FF0E022126922F081
:100C100001024FF0E0231A6100229A617047000040
:100C2000CC01002000127A00E0010020E201002047
:100C300010B54FF4A06000F003F910BD014600BFED
:100C4000704770B504460D4600BF4021634800F070
:100C50008FFE0028F9D0E1B2604800F01BFE20466C
:100C600070BD10B586B00446012144F2040000F0C6
:100C700071FC5A4800F0D2FC4FF40070ADF814003B
:100C800003208DF8160018208DF8170005A9544888
:100C900000F0A4F94FF48060ADF8140004208DF842
:100CA000170005A94E4800F099F901940020ADF80D
:100CB0000800ADF80A00ADF80C00ADF810000C20EB
:100CC000ADF80E0001A9454800F0EBFC25208DF899
:100CD000000003208DF801008DF8020001208DF83E
:100CE0000300684600F0B1F8012240F225513B486C
:100CF00000F06FFD0121394800F05FFD06B010BD26
:100D000010B540F22551354800F048FE002864D067
:100D100040F22551314800F06BFE304800F0BEFD36
:100D2000304908703048007858B9084600785A2889
:100D300003D101202C4908704FE000202A49087097
:100D40004BE02948007801280BD126480078552827
:100D500003D10220244908703FE000202249087096
:100D60003BE021480078022807D11E4800781F493F
:100D7000087003201C4908702FE01B4800780328E6
:100D800011D1184800781949487008460078497808
:100D900000EB012016490860002016490860042075
:100DA0001149087019E010480078042815D10D4841
:100DB0000178104802680068401C0E4B18600E480D
:100DC0008154184600680A490968884205D3002002
:100DD0000549087001200949087010BD003801401C
:100DE00000080140E4010020E5010020E6010020A8
:100DF000EC010020E80100200C020020B7010020D7
:100E00000948804709480047FEE7FEE7FEE7FEE79E
:100E1000FEE7FEE7FEE7FEE7FEE7FEE704480549DA
:100E2000054A064B704700000F0A00083101000810
:100E3000D0040020D00A0020D0060020D0060020D8
:100E400031490143314A1160704770B500210023D8
:100E50000F22C47804B32D4C246804F4E064C4F574
:100E6000E064210AC1F10403CA40447804FA03F1A2
:100E70008478144021430901254C0678A155047853
:100E800004F01F050124AC4005786D11AD0005F19B
:100E9000E025C5F8004109E0047804F01F050124AD
:100EA000AC401C4D0678761145F8264070BD1A4AB4
:100EB0000A400243154B1B1F1A60704739B1134A91
:100EC000121D12680243114B1B1D1A6006E00F4AE7
:100ED000121D126882430D4B1B1D1A6070470428B7
:100EE00008D14FF0E021096941F004014FF0E02200
:100EF000116107E04FF0E021096921F004014FF092
:100F0000E0221161704700000000FA050CED00E0DE
:100F100000E400E080E100E080FFFF1F10B5044620
:100F2000CC48844208D10121042000F02DFB00218F
:100F3000042000F029FB46E0C748844208D1012183
:100F4000082000F021FB0021082000F01DFB3AE002
:100F5000C248844208D10121102000F015FB002175
:100F6000102000F011FB2EE0BD48844208D1012181
:100F7000202000F009FB0021202000F005FB22E0EA
:100F8000B848844208D10121402000F0FDFA002138
:100F9000402000F0F9FA16E0B348844208D101215C
:100FA000802000F0F1FA0021802000F0EDFA0AE044
:100FB000AE48844207D10121801500F0E5FA0021F6
:100FC000A01500F0E1FA10BD10B50121084600F0AF
:100FD000DBFA0021012000F0D7FA10BD2DE9F04125
:100FE000024600250026002000230024002791F857
:100FF00003C00CF00F0591F803C00CF0100CBCF10D
:10100000000F03D091F802C04CEA050591F800C02A
:10101000BCF1000F31D0146800202BE04FF0010C20
:101020000CFA00F3B1F800C00CEA03069E4220D18E
:1010300083004FF00F0C0CFA03F7BC4305FA03FCD6
:101040004CEA040491F803C0BCF1280F06D14FF01C
:10105000010C0CFA00FCC2F814C00AE091F803C0BD
:10106000BCF1480F05D14FF0010C0CFA00FCC2F89E
:1010700010C0401C0828D1D31460B1F800C0BCF1E6
:10108000FF0F34DD546800202EE000F1080C4FF013
:10109000010808FA0CF3B1F800C00CEA03069E42FE
:1010A00021D183004FF00F0C0CFA03F7BC4305FA73
:1010B00003FC4CEA040491F803C0BCF1280F05D1ED
:1010C00000F1080C08FA0CF8C2F8148091F803C07B
:1010D000BCF1480F07D100F1080C4FF0010808FAE5
:1010E0000CF8C2F81080401C0828CED35460BDE82C
:1010F000F0814FF6FF710180022181700421C170DF
:1011000070470246002093680B400BB1012000E0BD
:10111000002070470146886880B270470246002070
:10112000D3680B400BB1012000E00020704701465E
:10113000C86880B2704701617047416170470AB169
:10114000016100E041617047C16070474FF4803237
:101150000A438261816182618269826970470246C5
:101160000020434B18684FF68073184040EA021085
:1011700008433F4B186070473E49C8617047F0B55F
:101180000A46002300240021002500F00046B6F1A5
:10119000004F02D1364EF16901E0354E7168C0F35F
:1011A000034583B200F44016B6F5401F08D121F084
:1011B00070612F4E766826F070662D4F7E6012E0CB
:1011C00000F48016B6F5801F06D1032606FA05F452
:1011D000A14341F0706106E0460D360103FA06F6C0
:1011E000B14341F0706122B1460D360103FA06F6B3
:1011F000314300F00046B6F1004F02D11C4EF161C0
:1012000001E01B4E7160F0BD30B500228B071C0F52
:101210000F2303FA04F2164B08338C1053F82430D2
:101220009343134C08348D1044F8253023468C101A
:1012300053F824308C07240F00FA04F423430C4C99
:1012400008348D1044F8253030BD0A49DC3108607F
:101250007047000000080140000C014000100140F0
:101260000014014000180140001C01400020014012
:101270000000014000002042DF48006840F001000B
:10128000DD49086008464068DC490840DA494860A2
:1012900008460068DA490840D749086008460068EF
:1012A00020F4802008600846406820F4FE00486072
:1012B0004FF41F0088607047CF49096821F48031DE
:1012C000CD4A11601146096821F480211160B0F502
:1012D000803F03D0B0F5802F0ED106E0C6490968E3
:1012E00041F48031C44A116007E0C349096841F400
:1012F000A021C14A116000E000BF00BF704710B5D7
:1013000001460022002300204A11012A02D1BA4CD2
:10131000236806E0022A02D1B74C236A01E0B64CEA
:10132000636A01F01F02012494401C400CB10120AB
:1013300000E0002010BD38B50020009000240025FA
:1013400000BF3120FFF7DBFF05460098401C0090EE
:101350000098B0F5A06F01D0002DF2D03120FFF73A
:10136000CEFF08B1012400E00024204638BD01462C
:101370000020A14A106820F0F80040EAC100106087
:101380007047A04908607047024600209A4B586891
:1013900020F47C1042EA01031843974B58607047D1
:1013A00098490866704701460020934A506820F02B
:1013B00003000843506070478F48406800F00C00FD
:1013C0007047014600208C4A506820F0F000084326
:1013D0005060704701460020874A506820F4E06062
:1013E00008435060704701460020834A506820F44B
:1013F000605040EAC1005060704729B17E4A527A7D
:1014000002437D4B5A7204E07B4A527A82437A4B04
:101410005A7270477B49D8310860704701460020F6
:10142000754A506820F440400843506070470021DE
:10143000714A20321170704A82F82010012802D0BF
:1014400004280AD104E001216B4A2032117005E022
:101450000521694A2032117000E000BF00BF7047CB
:101460006949086070476449096A0143624A116228
:101470007047654944390860704730B50021002243
:10148000002400235C4D6D6805F00C0121B1042996
:1014900005D0082923D105E05C4D056022E05B4DB5
:1014A00005601FE0544D6D6805F47012524D6D6873
:1014B00005F48034022505EB92421CB9544D554386
:1014C00005600BE04C4D6D6805F400351DB1504DC5
:1014D0005543056002E04D4D5543056002E04B4D1C
:1014E000056000BF00BF444D6D6805F0F0010909BB
:1014F000484D6B5C0568DD4045603F4D6D6805F407
:10150000E061090A434D6B5C4568DD4085603A4DFA
:101510006D6805F46051C90A3E4D6B5C4568DD405D
:10152000C560354D6D6805F44041890B3A4D6B5CE3
:10153000C568B5FBF3F5056130BD29B12E4A526986
:1015400002432D4B5A6104E02B4A526982432A4BD5
:101550005A61704729B1284A92690243264B9A6121
:1015600004E0254A92698243234B9A61704729B16E
:10157000214AD2690243204BDA6104E01E4AD26953
:1015800082431D4BDA61704729B11B4AD26802437E
:10159000194BDA6004E0184AD2688243164BDA60CD
:1015A000704729B1144A12690243134B1A6104E0CF
:1015B000114A12698243104B1A617047124940392F
:1015C000086070470F49C86470470B49C87170477D
:1015D0000948406A40F080700749486270470146F8
:1015E0000020054A92680A400AB1012000E000206C
:1015F0007047014988727047001002400000FFF8F0
:10160000FFFFF6FE000042428004424200127A00D0
:1016100000093D00F60100200602002010B5044636
:10162000FB48844209D101218803FFF7ADFF002167
:101630004FF48040FFF7A8FF32E0F648844209D11A
:1016400001214804FFF7ADFF00214FF40030FFF700
:10165000A8FF25E0F048844209D101218804FFF762
:10166000A0FF00214FF48020FFF79BFF18E0EB481C
:10167000844209D10121C804FFF793FF00214FF4F0
:101680000020FFF78EFF0BE0E548844208D10121DE
:101690000805FFF786FF00214FF48010FFF781FF58
:1016A00010BD2DE9F04786B005460E460024A2463F
:1016B00000BFA1460027B08900B100BF2F462C8A89
:1016C0004CF6FF700440F08804432C82AC894EF63F
:1016D000F3100440B08831890843718908430443FA
:1016E000AC81AC8A4FF6FF400440B0890443AC8221
:1016F00001A8FFF7C2FEC648874202D1DDF810A05C
:1017000001E0DDF80CA0A88900F4004040B10AEB2C
:10171000CA0000EB0A1031684900B0FBF1F807E09D
:101720000AEBCA0000EB0A1031688900B0FBF1F83F
:101730006420B8FBF0F004012009642101FB10894A
:10174000A88900F4004040B1322000EBC900B0FB92
:10175000F1F000F00700044308E0322000EB09102C
:101760006421B0FBF1F000F00F0004432C8106B0BF
:10177000BDE8F0874FF41651016000218180C180DF
:1017800001810C21418100218181704710B5024601
:101790000020108A4FF2FF0318400B884C88234327
:1017A0008C882343CC8823431843108210BD00212A
:1017B000018041808180C180704721B1828942F4DB
:1017C0000052828104E082894DF6FF731A408281C3
:1017D0007047F0B50346002400260025002040F69F
:1017E0006A17B94200D100BF1846C1F3421401F094
:1017F0001F06012707FA06F5012C01D10C3004E081
:10180000022C01D1103000E014301AB107682F43C8
:10181000076002E00768AF430760F0BD1AB1838A32
:101820000B43838202E0838A8B4383827047028A60
:101830004FF6F0731A400282028A0A43028270470E
:1018400082894FF2FF731A40828182890A43828122
:10185000704721B1828942F00202828104E08289CC
:101860004FF6FD731A4082817047028A4FF6DF738C
:101870001A400282028A0A430282704721B1028A18
:1018800042F48042028204E0028A4BF6FF731A405F
:1018900002827047C1F3080282807047014688883F
:1018A000C0F308007047818941F0010181817047D0
:1018B000028BD2B20283028B42EA0122028370477A
:1018C000028B02F47F420283028B0A430283704739
:1018D00021B1828A42F02002828204E0828A4FF69D
:1018E000DF731A408282704721B1828A42F010026F
:1018F000828204E0828A4FF6EF731A408282704738
:1019000021B1828A42F00802828204E0828A4FF684
:10191000F7731A408282704721B1828942F40042F3
:10192000828103E08289C2F30E028281704721B175
:10193000828A42F40062828204E0828A4FF2FF735C
:101940001A4082827047828A4FF6FB731A40828265
:10195000828A0A438282704721B1828A42F002025F
:10196000828204E0828A4FF6FD731A4082827047B9
:1019700002460020B1F5007F00D100BF13880B4064
:101980000BB1012000E00020704701F40072B2F5B5
:10199000007F00D100BFCA430280704770B5024685
:1019A000002400230025002040F66A16B14200D131
:1019B00000BFC1F3421501F01F03012606FA03F32D
:1019C000012D02D19689334006E0022D02D1168AFC
:1019D000334001E0968A33400C12012606FA04F4E3
:1019E0001688344013B10CB1012000E0002070BD16
:1019F00010B50022002340F66A14A14200D100BFB6
:101A00000A1201249440A3B2DC43048010BD0000FC
:101A1000003801400044004000480040004C0040B5
:101A2000005000407047032A40F2308010F0030C51
:101A300000F0158011F8013BBCF1020F624498BF21
:101A400011F801CB00F8013B38BF11F8013BA2F1BE
:101A5000040298BF00F801CB38BF00F8013B11F039
:101A6000030300F04B80083AC0F0088051F8043BB3
:101A7000083A51F804CBA0E80810F5E7121D5CBF46
:101A800051F8043B40F8043BAFF30080D20724BF79
:101A900011F8013B11F801CB48BF11F8012B24BF0D
:101AA00000F8013B00F801CB48BF00F8012B70475C
:101AB0004FF000020429C0F0128010F0030C00F077
:101AC0005180CCF1040CBCF1020F18BF00F8012BBF
:101AD000A8BF20F8022BA1EB0C0100F043B85FEA8D
:101AE000C17C24BF00F8012B00F8012B48BF00F88F
:101AF000012B7047704770477047704710B5203A08
:101B0000C0F00B80B1E81850203AA0E81850B1E8B6
:101B10001850A0E81850BFF4F5AF5FEA027C24BF6C
:101B2000B1E81850A0E8185044BF18C918C0BDE863
:101B300010405FEA827C24BF51F8043B40F8043B2C
:101B400008BF7047D20728BF31F8023B48BF11F8E1
:101B5000012B28BF20F8023B48BF00F8012B70473B
:101B60004FF0000200B5134694469646203922BF36
:101B7000A0E80C50A0E80C50B1F12001BFF4F7AF81
:101B8000090728BFA0E80C5048BF0CC05DF804EB63
:101B9000890028BF40F8042B08BF704748BF20F8D1
:101BA000022B11F0804F18BF00F8012B70477546CB
:101BB00000F02CF8AE4605006946534620F00700B9
:101BC000854618B020B5FFF729F9BDE820404FF051
:101BD00000064FF000074FF000084FF0000B21F017
:101BE0000701AC46ACE8C009ACE8C009ACE8C009E4
:101BF000ACE8C0098D46704710B50446AFF30080CD
:101C00002046BDE81040FEF7FABA000000487047D1
:101C100070040020341C0008000000200C020000AA
:101C20006C010008181D00080C020020C408000008
:101C3000C8010008145A5506130D063CC86A690A03
:101C400012032AC50A1A080A2D5001021A0C120C96
:101C50001B0D020C2312027A311C12057A1C0C1186
:101C60002B071E0C1207230D1B5ADE0B22195ADC00
:101C70003E221C332C01DA111B193D221A2B01DFE5
:101C80000C12134B0D182732C8196B4949397C11B6
:101C90002407FFFF5A1FA212205AE248221F390BC5
:101CA000120E130D211301041301035C0F04071D11
:101CB000121E3A011D49A2110A2B17A25A1B96396E
:101CC000267B01DD262924217AE5267B02E0266A8F
:101CD00002B03A1CBE217AE6267B03E1263A03577E
:101CE000392652035AE7D6121D391A49AECB071EC0
:101CF000EC190A7A252A12220410E46A694999111A
:101D00007CA24A041200081A0203040607080929E3
:081D10002269262502040608E1
:0400000508000131BD
:00000001FF
